{
  "contractName": "CrimeChain",
  "abi": [
    {
      "constant": false,
      "inputs": [
        {
          "name": "_fileHash",
          "type": "string"
        },
        {
          "name": "_name",
          "type": "string"
        },
        {
          "name": "_caseAddress",
          "type": "string"
        },
        {
          "name": "_caseType",
          "type": "string"
        },
        {
          "name": "_caseStatus",
          "type": "string"
        },
        {
          "name": "_connectionType",
          "type": "string"
        },
        {
          "name": "_date",
          "type": "string"
        }
      ],
      "name": "setCase",
      "outputs": [],
      "payable": false,
      "stateMutability": "nonpayable",
      "type": "function",
      "signature": "0x05ea9465"
    },
    {
      "constant": true,
      "inputs": [],
      "name": "getCaseHash",
      "outputs": [
        {
          "name": "",
          "type": "string"
        }
      ],
      "payable": false,
      "stateMutability": "view",
      "type": "function",
      "signature": "0x8e3aa93e"
    },
    {
      "constant": true,
      "inputs": [],
      "name": "getName",
      "outputs": [
        {
          "name": "",
          "type": "string"
        }
      ],
      "payable": false,
      "stateMutability": "view",
      "type": "function",
      "signature": "0x17d7de7c"
    },
    {
      "constant": true,
      "inputs": [],
      "name": "getCaseType",
      "outputs": [
        {
          "name": "",
          "type": "string"
        }
      ],
      "payable": false,
      "stateMutability": "view",
      "type": "function",
      "signature": "0x96648af8"
    },
    {
      "constant": true,
      "inputs": [],
      "name": "getCaseStatus",
      "outputs": [
        {
          "name": "",
          "type": "string"
        }
      ],
      "payable": false,
      "stateMutability": "view",
      "type": "function",
      "signature": "0x766dc766"
    },
    {
      "constant": true,
      "inputs": [],
      "name": "getCaseConnectionType",
      "outputs": [
        {
          "name": "",
          "type": "string"
        }
      ],
      "payable": false,
      "stateMutability": "view",
      "type": "function",
      "signature": "0x32009421"
    },
    {
      "constant": true,
      "inputs": [],
      "name": "getAddress",
      "outputs": [
        {
          "name": "",
          "type": "string"
        }
      ],
      "payable": false,
      "stateMutability": "view",
      "type": "function",
      "signature": "0x38cc4831"
    }
  ],
  "bytecode": "0x608060405234801561001057600080fd5b50610df4806100206000396000f3fe608060405260043610610083576000357c0100000000000000000000000000000000000000000000000000000000900463ffffffff16806305ea94651461008857806317d7de7c146104da578063320094211461056a57806338cc4831146105fa578063766dc7661461068a5780638e3aa93e1461071a57806396648af8146107aa575b600080fd5b34801561009457600080fd5b506104d8600480360360e08110156100ab57600080fd5b81019080803590602001906401000000008111156100c857600080fd5b8201836020820111156100da57600080fd5b803590602001918460018302840111640100000000831117156100fc57600080fd5b91908080601f016020809104026020016040519081016040528093929190818152602001838380828437600081840152601f19601f8201169050808301925050505050505091929192908035906020019064010000000081111561015f57600080fd5b82018360208201111561017157600080fd5b8035906020019184600183028401116401000000008311171561019357600080fd5b91908080601f016020809104026020016040519081016040528093929190818152602001838380828437600081840152601f19601f820116905080830192505050505050509192919290803590602001906401000000008111156101f657600080fd5b82018360208201111561020857600080fd5b8035906020019184600183028401116401000000008311171561022a57600080fd5b91908080601f016020809104026020016040519081016040528093929190818152602001838380828437600081840152601f19601f8201169050808301925050505050505091929192908035906020019064010000000081111561028d57600080fd5b82018360208201111561029f57600080fd5b803590602001918460018302840111640100000000831117156102c157600080fd5b91908080601f016020809104026020016040519081016040528093929190818152602001838380828437600081840152601f19601f8201169050808301925050505050505091929192908035906020019064010000000081111561032457600080fd5b82018360208201111561033657600080fd5b8035906020019184600183028401116401000000008311171561035857600080fd5b91908080601f016020809104026020016040519081016040528093929190818152602001838380828437600081840152601f19601f820116905080830192505050505050509192919290803590602001906401000000008111156103bb57600080fd5b8201836020820111156103cd57600080fd5b803590602001918460018302840111640100000000831117156103ef57600080fd5b91908080601f016020809104026020016040519081016040528093929190818152602001838380828437600081840152601f19601f8201169050808301925050505050505091929192908035906020019064010000000081111561045257600080fd5b82018360208201111561046457600080fd5b8035906020019184600183028401116401000000008311171561048657600080fd5b91908080601f016020809104026020016040519081016040528093929190818152602001838380828437600081840152601f19601f82011690508083019250505050505050919291929050505061083a565b005b3480156104e657600080fd5b506104ef610946565b6040518080602001828103825283818151815260200191508051906020019080838360005b8381101561052f578082015181840152602081019050610514565b50505050905090810190601f16801561055c5780820380516001836020036101000a031916815260200191505b509250505060405180910390f35b34801561057657600080fd5b5061057f6109eb565b6040518080602001828103825283818151815260200191508051906020019080838360005b838110156105bf5780820151818401526020810190506105a4565b50505050905090810190601f1680156105ec5780820380516001836020036101000a031916815260200191505b509250505060405180910390f35b34801561060657600080fd5b5061060f610a90565b6040518080602001828103825283818151815260200191508051906020019080838360005b8381101561064f578082015181840152602081019050610634565b50505050905090810190601f16801561067c5780820380516001836020036101000a031916815260200191505b509250505060405180910390f35b34801561069657600080fd5b5061069f610b35565b6040518080602001828103825283818151815260200191508051906020019080838360005b838110156106df5780820151818401526020810190506106c4565b50505050905090810190601f16801561070c5780820380516001836020036101000a031916815260200191505b509250505060405180910390f35b34801561072657600080fd5b5061072f610bda565b6040518080602001828103825283818151815260200191508051906020019080838360005b8381101561076f578082015181840152602081019050610754565b50505050905090810190601f16801561079c5780820380516001836020036101000a031916815260200191505b509250505060405180910390f35b3480156107b657600080fd5b506107bf610c7e565b6040518080602001828103825283818151815260200191508051906020019080838360005b838110156107ff5780820151818401526020810190506107e4565b50505050905090810190601f16801561082c5780820380516001836020036101000a031916815260200191505b509250505060405180910390f35b60e0604051908101604052808881526020018781526020018681526020018581526020018481526020018381526020018281525060008082015181600001908051906020019061088b929190610d23565b5060208201518160010190805190602001906108a8929190610d23565b5060408201518160020190805190602001906108c5929190610d23565b5060608201518160030190805190602001906108e2929190610d23565b5060808201518160040190805190602001906108ff929190610d23565b5060a082015181600501908051906020019061091c929190610d23565b5060c0820151816006019080519060200190610939929190610d23565b5090505050505050505050565b606060006001018054600181600116156101000203166002900480601f0160208091040260200160405190810160405280929190818152602001828054600181600116156101000203166002900480156109e15780601f106109b6576101008083540402835291602001916109e1565b820191906000526020600020905b8154815290600101906020018083116109c457829003601f168201915b5050505050905090565b606060006005018054600181600116156101000203166002900480601f016020809104026020016040519081016040528092919081815260200182805460018160011615610100020316600290048015610a865780601f10610a5b57610100808354040283529160200191610a86565b820191906000526020600020905b815481529060010190602001808311610a6957829003601f168201915b5050505050905090565b606060006002018054600181600116156101000203166002900480601f016020809104026020016040519081016040528092919081815260200182805460018160011615610100020316600290048015610b2b5780601f10610b0057610100808354040283529160200191610b2b565b820191906000526020600020905b815481529060010190602001808311610b0e57829003601f168201915b5050505050905090565b606060006004018054600181600116156101000203166002900480601f016020809104026020016040519081016040528092919081815260200182805460018160011615610100020316600290048015610bd05780601f10610ba557610100808354040283529160200191610bd0565b820191906000526020600020905b815481529060010190602001808311610bb357829003601f168201915b5050505050905090565b6060600080018054600181600116156101000203166002900480601f016020809104026020016040519081016040528092919081815260200182805460018160011615610100020316600290048015610c745780601f10610c4957610100808354040283529160200191610c74565b820191906000526020600020905b815481529060010190602001808311610c5757829003601f168201915b5050505050905090565b606060006003018054600181600116156101000203166002900480601f016020809104026020016040519081016040528092919081815260200182805460018160011615610100020316600290048015610d195780601f10610cee57610100808354040283529160200191610d19565b820191906000526020600020905b815481529060010190602001808311610cfc57829003601f168201915b5050505050905090565b828054600181600116156101000203166002900490600052602060002090601f016020900481019282601f10610d6457805160ff1916838001178555610d92565b82800160010185558215610d92579182015b82811115610d91578251825591602001919060010190610d76565b5b509050610d9f9190610da3565b5090565b610dc591905b80821115610dc1576000816000905550600101610da9565b5090565b9056fea165627a7a723058207635382fa98daec75904d9b09b83904190a2503a2635e9ceaf3433e744ff38840029",
  "source": "pragma solidity ^0.5.0;\r\n\r\ncontract CrimeChain {\r\n  \r\n    struct Case {\r\n        string fileHash;\r\n        string name;\r\n        string caseAddress;\r\n        string caseType;\r\n        string caseStatus;\r\n        string connectionType;\r\n        string date;\r\n    }\r\n\r\n    Case newCase;\r\n\r\n    function setCase(string memory _fileHash, string memory _name, string memory _caseAddress, string memory _caseType, string memory _caseStatus,\r\n        string memory _connectionType, string memory _date) public {\r\n        newCase = Case(_fileHash, _name, _caseAddress, _caseType, _caseStatus, _connectionType, _date);\r\n    }\r\n\r\n    function getCaseHash() public view returns (string memory) {\r\n        return newCase.fileHash;\r\n    }\r\n\r\n    function getName() public view returns (string memory) {\r\n        return newCase.name;\r\n    }\r\n\r\n    function getCaseType() public view returns (string memory) {\r\n        return newCase.caseType;\r\n    }\r\n\r\n    function getCaseStatus() public view returns (string memory) {\r\n        return newCase.caseStatus;\r\n    }\r\n\r\n    function getCaseConnectionType() public view returns (string memory) {\r\n        return newCase.connectionType;\r\n    }\r\n\r\n    function getAddress() public view returns (string memory) {\r\n        return newCase.caseAddress;\r\n    }\r\n\r\n}",
  "sourcePath": "C:/Users/Esmond Dsouza/Desktop/Files/Dissertation Projects/CrimeChain/src/contracts/CrimeChain.sol",
  "compiler": {
    "name": "solc",
    "version": "0.5.0+commit.1d4f565a.Emscripten.clang"
  },
  "schemaVersion": "3.0.2",
  "updatedAt": "2020-06-26T14:42:36.532Z",
  "devdoc": {
    "methods": {}
  },
  "userdoc": {
    "methods": {}
  }
}