{
  "contractName": "CrimeChain",
  "abi": [
    {
      "constant": false,
      "inputs": [
        {
          "name": "_fileHash",
          "type": "string"
        },
        {
          "name": "_name",
          "type": "string"
        },
        {
          "name": "_caseType",
          "type": "string"
        },
        {
          "name": "_caseStatus",
          "type": "string"
        },
        {
          "name": "_connectionType",
          "type": "string"
        },
        {
          "name": "_date",
          "type": "string"
        }
      ],
      "name": "setCase",
      "outputs": [],
      "payable": false,
      "stateMutability": "nonpayable",
      "type": "function",
      "signature": "0x5636e1e0"
    },
    {
      "constant": true,
      "inputs": [],
      "name": "getCaseHash",
      "outputs": [
        {
          "name": "",
          "type": "string"
        }
      ],
      "payable": false,
      "stateMutability": "view",
      "type": "function",
      "signature": "0x8e3aa93e"
    },
    {
      "constant": true,
      "inputs": [],
      "name": "getName",
      "outputs": [
        {
          "name": "",
          "type": "string"
        }
      ],
      "payable": false,
      "stateMutability": "view",
      "type": "function",
      "signature": "0x17d7de7c"
    },
    {
      "constant": true,
      "inputs": [],
      "name": "getCaseType",
      "outputs": [
        {
          "name": "",
          "type": "string"
        }
      ],
      "payable": false,
      "stateMutability": "view",
      "type": "function",
      "signature": "0x96648af8"
    },
    {
      "constant": true,
      "inputs": [],
      "name": "getCaseStatus",
      "outputs": [
        {
          "name": "",
          "type": "string"
        }
      ],
      "payable": false,
      "stateMutability": "view",
      "type": "function",
      "signature": "0x766dc766"
    },
    {
      "constant": true,
      "inputs": [],
      "name": "getCaseConnectionType",
      "outputs": [
        {
          "name": "",
          "type": "string"
        }
      ],
      "payable": false,
      "stateMutability": "view",
      "type": "function",
      "signature": "0x32009421"
    }
  ],
  "bytecode": "0x608060405234801561001057600080fd5b50610bf9806100206000396000f3fe608060405260043610610078576000357c0100000000000000000000000000000000000000000000000000000000900463ffffffff16806317d7de7c1461007d578063320094211461010d5780635636e1e01461019d578063766dc766146105585780638e3aa93e146105e857806396648af814610678575b600080fd5b34801561008957600080fd5b50610092610708565b6040518080602001828103825283818151815260200191508051906020019080838360005b838110156100d25780820151818401526020810190506100b7565b50505050905090810190601f1680156100ff5780820380516001836020036101000a031916815260200191505b509250505060405180910390f35b34801561011957600080fd5b506101226107ad565b6040518080602001828103825283818151815260200191508051906020019080838360005b83811015610162578082015181840152602081019050610147565b50505050905090810190601f16801561018f5780820380516001836020036101000a031916815260200191505b509250505060405180910390f35b3480156101a957600080fd5b50610556600480360360c08110156101c057600080fd5b81019080803590602001906401000000008111156101dd57600080fd5b8201836020820111156101ef57600080fd5b8035906020019184600183028401116401000000008311171561021157600080fd5b91908080601f016020809104026020016040519081016040528093929190818152602001838380828437600081840152601f19601f8201169050808301925050505050505091929192908035906020019064010000000081111561027457600080fd5b82018360208201111561028657600080fd5b803590602001918460018302840111640100000000831117156102a857600080fd5b91908080601f016020809104026020016040519081016040528093929190818152602001838380828437600081840152601f19601f8201169050808301925050505050505091929192908035906020019064010000000081111561030b57600080fd5b82018360208201111561031d57600080fd5b8035906020019184600183028401116401000000008311171561033f57600080fd5b91908080601f016020809104026020016040519081016040528093929190818152602001838380828437600081840152601f19601f820116905080830192505050505050509192919290803590602001906401000000008111156103a257600080fd5b8201836020820111156103b457600080fd5b803590602001918460018302840111640100000000831117156103d657600080fd5b91908080601f016020809104026020016040519081016040528093929190818152602001838380828437600081840152601f19601f8201169050808301925050505050505091929192908035906020019064010000000081111561043957600080fd5b82018360208201111561044b57600080fd5b8035906020019184600183028401116401000000008311171561046d57600080fd5b91908080601f016020809104026020016040519081016040528093929190818152602001838380828437600081840152601f19601f820116905080830192505050505050509192919290803590602001906401000000008111156104d057600080fd5b8201836020820111156104e257600080fd5b8035906020019184600183028401116401000000008311171561050457600080fd5b91908080601f016020809104026020016040519081016040528093929190818152602001838380828437600081840152601f19601f820116905080830192505050505050509192919290505050610852565b005b34801561056457600080fd5b5061056d61093a565b6040518080602001828103825283818151815260200191508051906020019080838360005b838110156105ad578082015181840152602081019050610592565b50505050905090810190601f1680156105da5780820380516001836020036101000a031916815260200191505b509250505060405180910390f35b3480156105f457600080fd5b506105fd6109df565b6040518080602001828103825283818151815260200191508051906020019080838360005b8381101561063d578082015181840152602081019050610622565b50505050905090810190601f16801561066a5780820380516001836020036101000a031916815260200191505b509250505060405180910390f35b34801561068457600080fd5b5061068d610a83565b6040518080602001828103825283818151815260200191508051906020019080838360005b838110156106cd5780820151818401526020810190506106b2565b50505050905090810190601f1680156106fa5780820380516001836020036101000a031916815260200191505b509250505060405180910390f35b606060006001018054600181600116156101000203166002900480601f0160208091040260200160405190810160405280929190818152602001828054600181600116156101000203166002900480156107a35780601f10610778576101008083540402835291602001916107a3565b820191906000526020600020905b81548152906001019060200180831161078657829003601f168201915b5050505050905090565b606060006004018054600181600116156101000203166002900480601f0160208091040260200160405190810160405280929190818152602001828054600181600116156101000203166002900480156108485780601f1061081d57610100808354040283529160200191610848565b820191906000526020600020905b81548152906001019060200180831161082b57829003601f168201915b5050505050905090565b60c0604051908101604052808781526020018681526020018581526020018481526020018381526020018281525060008082015181600001908051906020019061089d929190610b28565b5060208201518160010190805190602001906108ba929190610b28565b5060408201518160020190805190602001906108d7929190610b28565b5060608201518160030190805190602001906108f4929190610b28565b506080820151816004019080519060200190610911929190610b28565b5060a082015181600501908051906020019061092e929190610b28565b50905050505050505050565b606060006002018054600181600116156101000203166002900480601f0160208091040260200160405190810160405280929190818152602001828054600181600116156101000203166002900480156109d55780601f106109aa576101008083540402835291602001916109d5565b820191906000526020600020905b8154815290600101906020018083116109b857829003601f168201915b5050505050905090565b6060600080018054600181600116156101000203166002900480601f016020809104026020016040519081016040528092919081815260200182805460018160011615610100020316600290048015610a795780601f10610a4e57610100808354040283529160200191610a79565b820191906000526020600020905b815481529060010190602001808311610a5c57829003601f168201915b5050505050905090565b606060006002018054600181600116156101000203166002900480601f016020809104026020016040519081016040528092919081815260200182805460018160011615610100020316600290048015610b1e5780601f10610af357610100808354040283529160200191610b1e565b820191906000526020600020905b815481529060010190602001808311610b0157829003601f168201915b5050505050905090565b828054600181600116156101000203166002900490600052602060002090601f016020900481019282601f10610b6957805160ff1916838001178555610b97565b82800160010185558215610b97579182015b82811115610b96578251825591602001919060010190610b7b565b5b509050610ba49190610ba8565b5090565b610bca91905b80821115610bc6576000816000905550600101610bae565b5090565b9056fea165627a7a7230582011792d5c978a19df7bb1646749efb4192bb6ed6c71c30bff98ba45e64bb7314a0029",
  "source": "pragma solidity ^0.5.0;\r\n\r\ncontract CrimeChain {\r\n  \r\n    struct Case {\r\n        string fileHash;\r\n        string name;\r\n        string caseType;\r\n        string caseStatus;\r\n        string connectionType;\r\n        string date;\r\n    }\r\n\r\n    Case newCase;\r\n\r\n    function setCase(string memory _fileHash, string memory _name,  string memory _caseType,  string memory _caseStatus,\r\n        string memory _connectionType, string memory _date) public {\r\n        newCase = Case(_fileHash, _name, _caseType, _caseStatus, _connectionType, _date);\r\n    }\r\n\r\n    function getCaseHash() public view returns (string memory) {\r\n        return newCase.fileHash;\r\n    }\r\n\r\n    function getName() public view returns (string memory) {\r\n        return newCase.name;\r\n    }\r\n\r\n    function getCaseType() public view returns (string memory) {\r\n        return newCase.caseType;\r\n    }\r\n\r\n    function getCaseStatus() public view returns (string memory) {\r\n        return newCase.caseType;\r\n    }\r\n\r\n    function getCaseConnectionType() public view returns (string memory) {\r\n        return newCase.connectionType;\r\n    }\r\n\r\n}",
  "sourcePath": "C:/Users/Esmond Dsouza/Desktop/Files/Dissertation Projects/CrimeChain/src/contracts/CrimeChain.sol",
  "compiler": {
    "name": "solc",
    "version": "0.5.0+commit.1d4f565a.Emscripten.clang"
  },
  "schemaVersion": "3.0.2",
  "updatedAt": "2020-06-13T16:46:27.082Z",
  "devdoc": {
    "methods": {}
  },
  "userdoc": {
    "methods": {}
  }
}