{
  "contractName": "CrimeChain",
  "abi": [
    {
      "constant": false,
      "inputs": [
        {
          "name": "_fileHash",
          "type": "string"
        },
        {
          "name": "_name",
          "type": "string"
        },
        {
          "name": "_caseType",
          "type": "string"
        },
        {
          "name": "_caseStatus",
          "type": "string"
        },
        {
          "name": "_connectionType",
          "type": "string"
        },
        {
          "name": "_date",
          "type": "string"
        }
      ],
      "name": "setCase",
      "outputs": [],
      "payable": false,
      "stateMutability": "nonpayable",
      "type": "function",
      "signature": "0x5636e1e0"
    },
    {
      "constant": true,
      "inputs": [],
      "name": "getCaseHash",
      "outputs": [
        {
          "name": "",
          "type": "string"
        }
      ],
      "payable": false,
      "stateMutability": "view",
      "type": "function",
      "signature": "0x8e3aa93e"
    }
  ],
  "bytecode": "0x608060405234801561001057600080fd5b506106f9806100206000396000f3fe60806040526004361061004c576000357c0100000000000000000000000000000000000000000000000000000000900463ffffffff1680635636e1e0146100515780638e3aa93e1461040c575b600080fd5b34801561005d57600080fd5b5061040a600480360360c081101561007457600080fd5b810190808035906020019064010000000081111561009157600080fd5b8201836020820111156100a357600080fd5b803590602001918460018302840111640100000000831117156100c557600080fd5b91908080601f016020809104026020016040519081016040528093929190818152602001838380828437600081840152601f19601f8201169050808301925050505050505091929192908035906020019064010000000081111561012857600080fd5b82018360208201111561013a57600080fd5b8035906020019184600183028401116401000000008311171561015c57600080fd5b91908080601f016020809104026020016040519081016040528093929190818152602001838380828437600081840152601f19601f820116905080830192505050505050509192919290803590602001906401000000008111156101bf57600080fd5b8201836020820111156101d157600080fd5b803590602001918460018302840111640100000000831117156101f357600080fd5b91908080601f016020809104026020016040519081016040528093929190818152602001838380828437600081840152601f19601f8201169050808301925050505050505091929192908035906020019064010000000081111561025657600080fd5b82018360208201111561026857600080fd5b8035906020019184600183028401116401000000008311171561028a57600080fd5b91908080601f016020809104026020016040519081016040528093929190818152602001838380828437600081840152601f19601f820116905080830192505050505050509192919290803590602001906401000000008111156102ed57600080fd5b8201836020820111156102ff57600080fd5b8035906020019184600183028401116401000000008311171561032157600080fd5b91908080601f016020809104026020016040519081016040528093929190818152602001838380828437600081840152601f19601f8201169050808301925050505050505091929192908035906020019064010000000081111561038457600080fd5b82018360208201111561039657600080fd5b803590602001918460018302840111640100000000831117156103b857600080fd5b91908080601f016020809104026020016040519081016040528093929190818152602001838380828437600081840152601f19601f82011690508083019250505050505050919291929050505061049c565b005b34801561041857600080fd5b50610421610584565b6040518080602001828103825283818151815260200191508051906020019080838360005b83811015610461578082015181840152602081019050610446565b50505050905090810190601f16801561048e5780820380516001836020036101000a031916815260200191505b509250505060405180910390f35b60c060405190810160405280878152602001868152602001858152602001848152602001838152602001828152506000808201518160000190805190602001906104e7929190610628565b506020820151816001019080519060200190610504929190610628565b506040820151816002019080519060200190610521929190610628565b50606082015181600301908051906020019061053e929190610628565b50608082015181600401908051906020019061055b929190610628565b5060a0820151816005019080519060200190610578929190610628565b50905050505050505050565b6060600080018054600181600116156101000203166002900480601f01602080910402602001604051908101604052809291908181526020018280546001816001161561010002031660029004801561061e5780601f106105f35761010080835404028352916020019161061e565b820191906000526020600020905b81548152906001019060200180831161060157829003601f168201915b5050505050905090565b828054600181600116156101000203166002900490600052602060002090601f016020900481019282601f1061066957805160ff1916838001178555610697565b82800160010185558215610697579182015b8281111561069657825182559160200191906001019061067b565b5b5090506106a491906106a8565b5090565b6106ca91905b808211156106c65760008160009055506001016106ae565b5090565b9056fea165627a7a72305820dbdb29640c89f522caea91318aa990e55f54b4a0d2b57e64cf244e5177cdc6dd0029",
  "source": "pragma solidity ^0.5.0;\r\n\r\ncontract CrimeChain {\r\n  \r\n    struct Case {\r\n        string fileHash;\r\n        string name;\r\n        string caseType;\r\n        string caseStatus;\r\n        string connectionType;\r\n        string date;\r\n    }\r\n\r\n    Case newCase;\r\n\r\n    function setCase(string memory _fileHash, string memory _name,  string memory _caseType,  string memory _caseStatus,\r\n                string memory _connectionType, string memory _date) public {\r\n        newCase = Case(_fileHash, _name, _caseType, _caseStatus, _connectionType, _date);\r\n    }\r\n\r\n    function getCaseHash() public view returns (string memory) {\r\n        return newCase.fileHash;\r\n    }\r\n}\r\n",
  "sourcePath": "C:/Users/Esmond Dsouza/Desktop/Files/Dissertation Projects/CrimeChain/src/contracts/CrimeChain.sol",
  "compiler": {
    "name": "solc",
    "version": "0.5.0+commit.1d4f565a.Emscripten.clang"
  },
  "schemaVersion": "3.0.2",
  "updatedAt": "2020-06-13T10:07:10.957Z",
  "devdoc": {
    "methods": {}
  },
  "userdoc": {
    "methods": {}
  }
}