{
  "contractName": "RBAC",
  "abi": [
    {
      "constant": true,
      "inputs": [
        {
          "name": "",
          "type": "uint256"
        }
      ],
      "name": "roles",
      "outputs": [
        {
          "name": "description",
          "type": "string"
        },
        {
          "name": "account",
          "type": "string"
        }
      ],
      "payable": false,
      "stateMutability": "view",
      "type": "function",
      "signature": "0xbfda4a49"
    },
    {
      "inputs": [],
      "payable": false,
      "stateMutability": "nonpayable",
      "type": "constructor",
      "signature": "constructor"
    },
    {
      "anonymous": false,
      "inputs": [
        {
          "indexed": false,
          "name": "role",
          "type": "uint256"
        }
      ],
      "name": "RoleCreated",
      "type": "event",
      "signature": "0x5ae7bf8c4c39be741ec8e27386e1453106504ca4b4351e28065a5ca97415d430"
    },
    {
      "anonymous": false,
      "inputs": [
        {
          "indexed": false,
          "name": "account",
          "type": "address"
        },
        {
          "indexed": false,
          "name": "role",
          "type": "uint256"
        }
      ],
      "name": "BearerAdded",
      "type": "event",
      "signature": "0xd81f2841f8b3997e1937995d307db36db75c385165bbad7916db26732d8ccb17"
    },
    {
      "anonymous": false,
      "inputs": [
        {
          "indexed": false,
          "name": "account",
          "type": "address"
        },
        {
          "indexed": false,
          "name": "role",
          "type": "uint256"
        }
      ],
      "name": "BearerRemoved",
      "type": "event",
      "signature": "0x18dd68c3b9a992261fefcaa58c659f0a628d54692027be4c0662c2365fbb819a"
    },
    {
      "constant": false,
      "inputs": [
        {
          "name": "_role",
          "type": "string"
        },
        {
          "name": "_account",
          "type": "string"
        }
      ],
      "name": "addRole",
      "outputs": [
        {
          "name": "",
          "type": "uint256"
        }
      ],
      "payable": false,
      "stateMutability": "nonpayable",
      "type": "function",
      "signature": "0xdd517fae"
    },
    {
      "constant": true,
      "inputs": [],
      "name": "totalRoles",
      "outputs": [
        {
          "name": "",
          "type": "uint256"
        }
      ],
      "payable": false,
      "stateMutability": "view",
      "type": "function",
      "signature": "0x790e118c"
    },
    {
      "constant": true,
      "inputs": [
        {
          "name": "_account",
          "type": "string"
        },
        {
          "name": "_role",
          "type": "string"
        }
      ],
      "name": "hasRole",
      "outputs": [
        {
          "name": "",
          "type": "bool"
        }
      ],
      "payable": false,
      "stateMutability": "view",
      "type": "function",
      "signature": "0x24e07913"
    },
    {
      "constant": true,
      "inputs": [
        {
          "name": "_account",
          "type": "string"
        }
      ],
      "name": "checkIfAdmin",
      "outputs": [
        {
          "name": "",
          "type": "bool"
        }
      ],
      "payable": false,
      "stateMutability": "view",
      "type": "function",
      "signature": "0xb8cb386d"
    },
    {
      "constant": true,
      "inputs": [],
      "name": "getAllRoles",
      "outputs": [
        {
          "name": "",
          "type": "string[]"
        },
        {
          "name": "",
          "type": "string[]"
        }
      ],
      "payable": false,
      "stateMutability": "view",
      "type": "function",
      "signature": "0xf2bcac3d"
    }
  ],
  "bytecode": "0x60806040523480156200001157600080fd5b50620000be6040805190810160405280600581526020017f41444d494e000000000000000000000000000000000000000000000000000000815250606060405190810160405280602a81526020017f307839443241443045613446304366323839354537363639633739643561393281526020017f38443037333164363731000000000000000000000000000000000000000000008152506200021f640100000000026401000000009004565b506200016b6040805190810160405280600281526020017f5257000000000000000000000000000000000000000000000000000000000000815250606060405190810160405280602a81526020017f307839443241443045613446304366323839354537363639633739643561393281526020017f38443037333164363731000000000000000000000000000000000000000000008152506200021f640100000000026401000000009004565b50620002186040805190810160405280600281526020017f5257000000000000000000000000000000000000000000000000000000000000815250606060405190810160405280602a81526020017f307837663646363139323062343938443033343831303732314562664439323881526020017f39643930323437336336000000000000000000000000000000000000000000008152506200021f640100000000026401000000009004565b5062000366565b600080600090506001600060408051908101604052808781526020018681525090806001815401808255809150509060018203906000526020600020906003020160009091929091909150600082015181600001908051906020019062000288929190620002b7565b506020820151816001019080519060200190620002a7929190620002b7565b5050500390508091505092915050565b828054600181600116156101000203166002900490600052602060002090601f016020900481019282601f10620002fa57805160ff19168380011785556200032b565b828001600101855582156200032b579182015b828111156200032a5782518255916020019190600101906200030d565b5b5090506200033a91906200033e565b5090565b6200036391905b808211156200035f57600081600090555060010162000345565b5090565b90565b610dad80620003766000396000f3fe608060405260043610610078576000357c0100000000000000000000000000000000000000000000000000000000900463ffffffff16806324e079131461007d578063790e118c146100ba578063b8cb386d146100e5578063bfda4a4914610122578063dd517fae14610160578063f2bcac3d1461019d575b600080fd5b34801561008957600080fd5b506100a4600480360361009f9190810190610a7c565b6101c9565b6040516100b19190610c0a565b60405180910390f35b3480156100c657600080fd5b506100cf610333565b6040516100dc9190610c5c565b60405180910390f35b3480156100f157600080fd5b5061010c60048036036101079190810190610a3b565b610343565b6040516101199190610c0a565b60405180910390f35b34801561012e57600080fd5b5061014960048036036101449190810190610ae8565b6104e1565b604051610157929190610c25565b60405180910390f35b34801561016c57600080fd5b5061018760048036036101829190810190610a7c565b610644565b6040516101949190610c5c565b60405180910390f35b3480156101a957600080fd5b506101b26106d8565b6040516101c0929190610bd3565b60405180910390f35b6000806000905060008090505b6000805490508110156103285783805190602001206000828154811015156101fa57fe5b906000526020600020906003020160000160405180828054600181600116156101000203166002900480156102665780601f10610244576101008083540402835291820191610266565b820191906000526020600020905b815481529060010190602001808311610252575b5050915050604051809103902014801561030d5750848051906020012060008281548110151561029257fe5b906000526020600020906003020160010160405180828054600181600116156101000203166002900480156102fe5780601f106102dc5761010080835404028352918201916102fe565b820191906000526020600020905b8154815290600101906020018083116102ea575b50509150506040518091039020145b1561031b5760019150610328565b80806001019150506101d6565b508091505092915050565b6000600160008054905003905090565b6000806000905060008090505b6000805490508110156104d7576040805190810160405280600581526020017f41444d494e000000000000000000000000000000000000000000000000000000815250805190602001206000828154811015156103a957fe5b906000526020600020906003020160000160405180828054600181600116156101000203166002900480156104155780601f106103f3576101008083540402835291820191610415565b820191906000526020600020905b815481529060010190602001808311610401575b505091505060405180910390201480156104bc5750838051906020012060008281548110151561044157fe5b906000526020600020906003020160010160405180828054600181600116156101000203166002900480156104ad5780601f1061048b5761010080835404028352918201916104ad565b820191906000526020600020905b815481529060010190602001808311610499575b50509150506040518091039020145b156104ca57600191506104d7565b8080600101915050610350565b5080915050919050565b6000818154811015156104f057fe5b9060005260206000209060030201600091509050806000018054600181600116156101000203166002900480601f01602080910402602001604051908101604052809291908181526020018280546001816001161561010002031660029004801561059c5780601f106105715761010080835404028352916020019161059c565b820191906000526020600020905b81548152906001019060200180831161057f57829003601f168201915b505050505090806001018054600181600116156101000203166002900480601f01602080910402602001604051908101604052809291908181526020018280546001816001161561010002031660029004801561063a5780601f1061060f5761010080835404028352916020019161063a565b820191906000526020600020905b81548152906001019060200180831161061d57829003601f168201915b5050505050905082565b60008060009050600160006040805190810160405280878152602001868152509080600181540180825580915050906001820390600052602060002090600302016000909192909190915060008201518160000190805190602001906106ab92919061092c565b5060208201518160010190805190602001906106c892919061092c565b5050500390508091505092915050565b606080606060008054905060405190808252806020026020018201604052801561071657816020015b60608152602001906001900390816107015790505b509050606060008054905060405190808252806020026020018201604052801561075457816020015b606081526020019060019003908161073f5790505b50905060008090505b60008054905081101561091f5760008181548110151561077957fe5b90600052602060002090600302016001018054600181600116156101000203166002900480601f01602080910402602001604051908101604052809291908181526020018280546001816001161561010002031660029004801561081e5780601f106107f35761010080835404028352916020019161081e565b820191906000526020600020905b81548152906001019060200180831161080157829003601f168201915b5050505050838281518110151561083157fe5b9060200190602002018190525060008181548110151561084d57fe5b90600052602060002090600302016000018054600181600116156101000203166002900480601f0160208091040260200160405190810160405280929190818152602001828054600181600116156101000203166002900480156108f25780601f106108c7576101008083540402835291602001916108f2565b820191906000526020600020905b8154815290600101906020018083116108d557829003601f168201915b5050505050828281518110151561090557fe5b90602001906020020181905250808060010191505061075d565b5081819350935050509091565b828054600181600116156101000203166002900490600052602060002090601f016020900481019282601f1061096d57805160ff191683800117855561099b565b8280016001018555821561099b579182015b8281111561099a57825182559160200191906001019061097f565b5b5090506109a891906109ac565b5090565b6109ce91905b808211156109ca5760008160009055506001016109b2565b5090565b90565b600082601f83011215156109e457600080fd5b81356109f76109f282610ca4565b610c77565b91508082526020830160208301858383011115610a1357600080fd5b610a1e838284610d20565b50505092915050565b6000610a338235610d16565b905092915050565b600060208284031215610a4d57600080fd5b600082013567ffffffffffffffff811115610a6757600080fd5b610a73848285016109d1565b91505092915050565b60008060408385031215610a8f57600080fd5b600083013567ffffffffffffffff811115610aa957600080fd5b610ab5858286016109d1565b925050602083013567ffffffffffffffff811115610ad257600080fd5b610ade858286016109d1565b9150509250929050565b600060208284031215610afa57600080fd5b6000610b0884828501610a27565b91505092915050565b6000610b1c82610cdd565b80845260208401935083602082028501610b3585610cd0565b60005b84811015610b6e578383038852610b50838351610b8e565b9250610b5b82610cf3565b9150602088019750600181019050610b38565b508196508694505050505092915050565b610b8881610d00565b82525050565b6000610b9982610ce8565b808452610bad816020860160208601610d2f565b610bb681610d62565b602085010191505092915050565b610bcd81610d0c565b82525050565b60006040820190508181036000830152610bed8185610b11565b90508181036020830152610c018184610b11565b90509392505050565b6000602082019050610c1f6000830184610b7f565b92915050565b60006040820190508181036000830152610c3f8185610b8e565b90508181036020830152610c538184610b8e565b90509392505050565b6000602082019050610c716000830184610bc4565b92915050565b6000604051905081810181811067ffffffffffffffff82111715610c9a57600080fd5b8060405250919050565b600067ffffffffffffffff821115610cbb57600080fd5b601f19601f8301169050602081019050919050565b6000602082019050919050565b600081519050919050565b600081519050919050565b6000602082019050919050565b60008115159050919050565b6000819050919050565b6000819050919050565b82818337600083830152505050565b60005b83811015610d4d578082015181840152602081019050610d32565b83811115610d5c576000848401525b50505050565b6000601f19601f830116905091905056fea265627a7a723058200bf06e054d0e0433ad1bde808e38383d44fe9be2029fff825998f5c40d51ed6f6c6578706572696d656e74616cf50037",
  "source": "pragma solidity ^0.5.0;\r\npragma experimental ABIEncoderV2;\r\n\r\ncontract RBAC {\r\n\r\n  event RoleCreated(uint256 role);\r\n  event BearerAdded(address account, uint256 role);\r\n  event BearerRemoved(address account, uint256 role);\r\n  string constant NO_ROLE = '0x9D2AD0Ea4F0Cf2895E7669c79d5a928D0731d671';\r\n  \r\n\r\n  struct Role {\r\n    string description;\r\n    string account;\r\n    mapping (address => bool) bearers;\r\n  }\r\n  \r\n\r\n  Role[] public roles;\r\n  constructor() public {\r\n    addRole(\"ADMIN\", \"0x9D2AD0Ea4F0Cf2895E7669c79d5a928D0731d671\");\r\n    addRole(\"RW\", \"0x9D2AD0Ea4F0Cf2895E7669c79d5a928D0731d671\");\r\n    addRole(\"RW\", \"0x7f6F61920b498D034810721EbfD9289d902473c6\");\r\n  }\r\n\r\n\r\n  function addRole(string memory _role, string memory _account) public returns(uint256) {\r\n    uint256 role = 0;\r\n      role = roles.push(\r\n        Role({\r\n          description: _role,\r\n          account: _account\r\n        })\r\n      ) - 1;\r\n    return role;\r\n  }\r\n  \r\n\r\n  function totalRoles() public view returns(uint256) {\r\n    return roles.length - 1;\r\n  }\r\n\r\n  \r\n  function hasRole(string memory _account, string memory _role) public view returns(bool) {\r\n    bool hasParticularRole = false;\r\n    for(uint256 i=0; i<roles.length; i++){\r\n      if (keccak256(bytes(roles[i].description)) == keccak256(bytes(_role)) && keccak256(bytes(roles[i].account)) == keccak256(bytes(_account))){\r\n        hasParticularRole = true;\r\n        break;\r\n      }\r\n    }\r\n    return hasParticularRole;\r\n  }\r\n\r\n\r\n  function checkIfAdmin(string memory _account) public view returns (bool) {\r\n    bool isAdmin = false;\r\n    for(uint256 i=0; i<roles.length; i++){\r\n      if (keccak256(bytes(roles[i].description)) == keccak256(bytes(\"ADMIN\")) && keccak256(bytes(roles[i].account)) == keccak256(bytes(_account))){\r\n        isAdmin = true;\r\n        break;\r\n      }\r\n    }\r\n    return isAdmin;\r\n  }\r\n\r\n  function getAllRoles() public view returns (string[] memory, string[] memory)  {\r\n        string[] memory accounts = new string[](roles.length);\r\n        string[] memory accountRoles = new string[](roles.length);\r\n        for (uint256 i = 0; i < roles.length; i++) {\r\n            accounts[i] = roles[i].account;\r\n            accountRoles[i] = roles[i].description;\r\n        }\r\n        return (accounts, accountRoles);\r\n    }\r\n\r\n}",
  "sourcePath": "C:/Users/Esmond Dsouza/Desktop/Files/Dissertation Projects/CrimeChain/src/contracts/RBAC.sol",
  "compiler": {
    "name": "solc",
    "version": "0.5.0+commit.1d4f565a.Emscripten.clang"
  },
  "schemaVersion": "3.0.2",
  "updatedAt": "2020-06-26T14:42:36.536Z",
  "devdoc": {
    "methods": {}
  },
  "userdoc": {
    "methods": {}
  }
}