{
  "contractName": "RBAC",
  "abi": [
    {
      "constant": true,
      "inputs": [
        {
          "name": "",
          "type": "uint256"
        }
      ],
      "name": "roles",
      "outputs": [
        {
          "name": "description",
          "type": "string"
        },
        {
          "name": "account",
          "type": "string"
        }
      ],
      "payable": false,
      "stateMutability": "view",
      "type": "function",
      "signature": "0xbfda4a49"
    },
    {
      "inputs": [],
      "payable": false,
      "stateMutability": "nonpayable",
      "type": "constructor",
      "signature": "constructor"
    },
    {
      "constant": false,
      "inputs": [
        {
          "name": "_role",
          "type": "string"
        },
        {
          "name": "_account",
          "type": "string"
        }
      ],
      "name": "addRole",
      "outputs": [
        {
          "name": "",
          "type": "uint256"
        }
      ],
      "payable": false,
      "stateMutability": "nonpayable",
      "type": "function",
      "signature": "0xdd517fae"
    },
    {
      "constant": true,
      "inputs": [],
      "name": "totalRoles",
      "outputs": [
        {
          "name": "",
          "type": "uint256"
        }
      ],
      "payable": false,
      "stateMutability": "view",
      "type": "function",
      "signature": "0x790e118c"
    },
    {
      "constant": true,
      "inputs": [
        {
          "name": "_account",
          "type": "string"
        },
        {
          "name": "_role",
          "type": "string"
        }
      ],
      "name": "hasRole",
      "outputs": [
        {
          "name": "",
          "type": "bool"
        }
      ],
      "payable": false,
      "stateMutability": "view",
      "type": "function",
      "signature": "0x24e07913"
    },
    {
      "constant": true,
      "inputs": [
        {
          "name": "_account",
          "type": "string"
        }
      ],
      "name": "checkIfAdmin",
      "outputs": [
        {
          "name": "",
          "type": "bool"
        }
      ],
      "payable": false,
      "stateMutability": "view",
      "type": "function",
      "signature": "0xb8cb386d"
    },
    {
      "constant": true,
      "inputs": [],
      "name": "getAllRoles",
      "outputs": [
        {
          "name": "",
          "type": "string[]"
        },
        {
          "name": "",
          "type": "string[]"
        }
      ],
      "payable": false,
      "stateMutability": "view",
      "type": "function",
      "signature": "0xf2bcac3d"
    },
    {
      "constant": false,
      "inputs": [
        {
          "name": "index",
          "type": "uint256"
        }
      ],
      "name": "removeRole",
      "outputs": [
        {
          "name": "",
          "type": "bool"
        }
      ],
      "payable": false,
      "stateMutability": "nonpayable",
      "type": "function",
      "signature": "0x92691821"
    }
  ],
  "bytecode": "0x60806040523480156200001157600080fd5b50620000be6040805190810160405280600581526020017f41444d494e000000000000000000000000000000000000000000000000000000815250606060405190810160405280602a81526020017f307839443241443045613446304366323839354537363639633739643561393281526020017f38443037333164363731000000000000000000000000000000000000000000008152506200021f640100000000026401000000009004565b506200016b6040805190810160405280600281526020017f5257000000000000000000000000000000000000000000000000000000000000815250606060405190810160405280602a81526020017f307839443241443045613446304366323839354537363639633739643561393281526020017f38443037333164363731000000000000000000000000000000000000000000008152506200021f640100000000026401000000009004565b50620002186040805190810160405280600281526020017f5257000000000000000000000000000000000000000000000000000000000000815250606060405190810160405280602a81526020017f307837663646363139323062343938443033343831303732314562664439323881526020017f39643930323437336336000000000000000000000000000000000000000000008152506200021f640100000000026401000000009004565b5062000366565b600080600090506001600060408051908101604052808781526020018681525090806001815401808255809150509060018203906000526020600020906002020160009091929091909150600082015181600001908051906020019062000288929190620002b7565b506020820151816001019080519060200190620002a7929190620002b7565b5050500390508091505092915050565b828054600181600116156101000203166002900490600052602060002090601f016020900481019282601f10620002fa57805160ff19168380011785556200032b565b828001600101855582156200032b579182015b828111156200032a5782518255916020019190600101906200030d565b5b5090506200033a91906200033e565b5090565b6200036391905b808211156200035f57600081600090555060010162000345565b5090565b90565b61105b80620003766000396000f3fe608060405260043610610083576000357c0100000000000000000000000000000000000000000000000000000000900463ffffffff16806324e0791314610088578063790e118c146100c557806392691821146100f0578063b8cb386d1461012d578063bfda4a491461016a578063dd517fae146101a8578063f2bcac3d146101e5575b600080fd5b34801561009457600080fd5b506100af60048036036100aa9190810190610d2a565b610211565b6040516100bc9190610eb8565b60405180910390f35b3480156100d157600080fd5b506100da61037b565b6040516100e79190610f0a565b60405180910390f35b3480156100fc57600080fd5b5061011760048036036101129190810190610d96565b61038b565b6040516101249190610eb8565b60405180910390f35b34801561013957600080fd5b50610154600480360361014f9190810190610ce9565b6104b1565b6040516101619190610eb8565b60405180910390f35b34801561017657600080fd5b50610191600480360361018c9190810190610d96565b61064f565b60405161019f929190610ed3565b60405180910390f35b3480156101b457600080fd5b506101cf60048036036101ca9190810190610d2a565b6107b2565b6040516101dc9190610f0a565b60405180910390f35b3480156101f157600080fd5b506101fa610846565b604051610208929190610e81565b60405180910390f35b6000806000905060008090505b60008054905081101561037057838051906020012060008281548110151561024257fe5b906000526020600020906002020160000160405180828054600181600116156101000203166002900480156102ae5780601f1061028c5761010080835404028352918201916102ae565b820191906000526020600020905b81548152906001019060200180831161029a575b50509150506040518091039020148015610355575084805190602001206000828154811015156102da57fe5b906000526020600020906002020160010160405180828054600181600116156101000203166002900480156103465780601f10610324576101008083540402835291820191610346565b820191906000526020600020905b815481529060010190602001808311610332575b50509150506040518091039020145b156103635760019150610370565b808060010191505061021e565b508091505092915050565b6000600160008054905003905090565b6000806000905060008390505b600160008054905003811015610445576000600182018154811015156103ba57fe5b90600052602060002090600202016000828154811015156103d757fe5b90600052602060002090600202016000820181600001908054600181600116156101000203166002900461040c929190610a9a565b5060018201816001019080546001816001161561010002031660029004610434929190610a9a565b509050508080600101915050610398565b50600060016000805490500381548110151561045d57fe5b90600052602060002090600202016000808201600061047c9190610b21565b60018201600061048c9190610b21565b505060008054809190600190036104a39190610b69565b506001905080915050919050565b6000806000905060008090505b600080549050811015610645576040805190810160405280600581526020017f41444d494e0000000000000000000000000000000000000000000000000000008152508051906020012060008281548110151561051757fe5b906000526020600020906002020160000160405180828054600181600116156101000203166002900480156105835780601f10610561576101008083540402835291820191610583565b820191906000526020600020905b81548152906001019060200180831161056f575b5050915050604051809103902014801561062a575083805190602001206000828154811015156105af57fe5b9060005260206000209060020201600101604051808280546001816001161561010002031660029004801561061b5780601f106105f957610100808354040283529182019161061b565b820191906000526020600020905b815481529060010190602001808311610607575b50509150506040518091039020145b156106385760019150610645565b80806001019150506104be565b5080915050919050565b60008181548110151561065e57fe5b9060005260206000209060020201600091509050806000018054600181600116156101000203166002900480601f01602080910402602001604051908101604052809291908181526020018280546001816001161561010002031660029004801561070a5780601f106106df5761010080835404028352916020019161070a565b820191906000526020600020905b8154815290600101906020018083116106ed57829003601f168201915b505050505090806001018054600181600116156101000203166002900480601f0160208091040260200160405190810160405280929190818152602001828054600181600116156101000203166002900480156107a85780601f1061077d576101008083540402835291602001916107a8565b820191906000526020600020905b81548152906001019060200180831161078b57829003601f168201915b5050505050905082565b6000806000905060016000604080519081016040528087815260200186815250908060018154018082558091505090600182039060005260206000209060020201600090919290919091506000820151816000019080519060200190610819929190610b9b565b506020820151816001019080519060200190610836929190610b9b565b5050500390508091505092915050565b606080606060008054905060405190808252806020026020018201604052801561088457816020015b606081526020019060019003908161086f5790505b50905060606000805490506040519080825280602002602001820160405280156108c257816020015b60608152602001906001900390816108ad5790505b50905060008090505b600080549050811015610a8d576000818154811015156108e757fe5b90600052602060002090600202016001018054600181600116156101000203166002900480601f01602080910402602001604051908101604052809291908181526020018280546001816001161561010002031660029004801561098c5780601f106109615761010080835404028352916020019161098c565b820191906000526020600020905b81548152906001019060200180831161096f57829003601f168201915b5050505050838281518110151561099f57fe5b906020019060200201819052506000818154811015156109bb57fe5b90600052602060002090600202016000018054600181600116156101000203166002900480601f016020809104026020016040519081016040528092919081815260200182805460018160011615610100020316600290048015610a605780601f10610a3557610100808354040283529160200191610a60565b820191906000526020600020905b815481529060010190602001808311610a4357829003601f168201915b50505050508282815181101515610a7357fe5b9060200190602002018190525080806001019150506108cb565b5081819350935050509091565b828054600181600116156101000203166002900490600052602060002090601f016020900481019282601f10610ad35780548555610b10565b82800160010185558215610b1057600052602060002091601f016020900482015b82811115610b0f578254825591600101919060010190610af4565b5b509050610b1d9190610c1b565b5090565b50805460018160011615610100020316600290046000825580601f10610b475750610b66565b601f016020900490600052602060002090810190610b659190610c1b565b5b50565b815481835581811115610b9657600202816002028360005260206000209182019101610b959190610c40565b5b505050565b828054600181600116156101000203166002900490600052602060002090601f016020900481019282601f10610bdc57805160ff1916838001178555610c0a565b82800160010185558215610c0a579182015b82811115610c09578251825591602001919060010190610bee565b5b509050610c179190610c1b565b5090565b610c3d91905b80821115610c39576000816000905550600101610c21565b5090565b90565b610c7c91905b80821115610c785760008082016000610c5f9190610b21565b600182016000610c6f9190610b21565b50600201610c46565b5090565b90565b600082601f8301121515610c9257600080fd5b8135610ca5610ca082610f52565b610f25565b91508082526020830160208301858383011115610cc157600080fd5b610ccc838284610fce565b50505092915050565b6000610ce18235610fc4565b905092915050565b600060208284031215610cfb57600080fd5b600082013567ffffffffffffffff811115610d1557600080fd5b610d2184828501610c7f565b91505092915050565b60008060408385031215610d3d57600080fd5b600083013567ffffffffffffffff811115610d5757600080fd5b610d6385828601610c7f565b925050602083013567ffffffffffffffff811115610d8057600080fd5b610d8c85828601610c7f565b9150509250929050565b600060208284031215610da857600080fd5b6000610db684828501610cd5565b91505092915050565b6000610dca82610f8b565b80845260208401935083602082028501610de385610f7e565b60005b84811015610e1c578383038852610dfe838351610e3c565b9250610e0982610fa1565b9150602088019750600181019050610de6565b508196508694505050505092915050565b610e3681610fae565b82525050565b6000610e4782610f96565b808452610e5b816020860160208601610fdd565b610e6481611010565b602085010191505092915050565b610e7b81610fba565b82525050565b60006040820190508181036000830152610e9b8185610dbf565b90508181036020830152610eaf8184610dbf565b90509392505050565b6000602082019050610ecd6000830184610e2d565b92915050565b60006040820190508181036000830152610eed8185610e3c565b90508181036020830152610f018184610e3c565b90509392505050565b6000602082019050610f1f6000830184610e72565b92915050565b6000604051905081810181811067ffffffffffffffff82111715610f4857600080fd5b8060405250919050565b600067ffffffffffffffff821115610f6957600080fd5b601f19601f8301169050602081019050919050565b6000602082019050919050565b600081519050919050565b600081519050919050565b6000602082019050919050565b60008115159050919050565b6000819050919050565b6000819050919050565b82818337600083830152505050565b60005b83811015610ffb578082015181840152602081019050610fe0565b8381111561100a576000848401525b50505050565b6000601f19601f830116905091905056fea265627a7a723058207d77c1777e82f283065ceae0f484f3c5adef8fdf6c73d37d7733cf341612dc776c6578706572696d656e74616cf50037",
  "source": "pragma solidity ^0.5.0;\r\npragma experimental ABIEncoderV2;\r\n\r\ncontract RBAC {\r\n\r\n  struct Role {\r\n    string description;\r\n    string account;\r\n  }\r\n  \r\n\r\n  Role[] public roles;\r\n  constructor() public {\r\n    addRole(\"ADMIN\", \"0x9D2AD0Ea4F0Cf2895E7669c79d5a928D0731d671\");\r\n    addRole(\"RW\", \"0x9D2AD0Ea4F0Cf2895E7669c79d5a928D0731d671\");\r\n    addRole(\"RW\", \"0x7f6F61920b498D034810721EbfD9289d902473c6\");\r\n  }\r\n\r\n\r\n  function addRole(string memory _role, string memory _account) public returns(uint256) {\r\n    uint256 role = 0;\r\n      role = roles.push(\r\n        Role({\r\n          description: _role,\r\n          account: _account\r\n        })\r\n      ) - 1;\r\n    return role;\r\n  }\r\n  \r\n\r\n  function totalRoles() public view returns(uint256) {\r\n    return roles.length - 1;\r\n  }\r\n\r\n  \r\n  function hasRole(string memory _account, string memory _role) public view returns(bool) {\r\n    bool hasParticularRole = false;\r\n    for(uint256 i=0; i<roles.length; i++){\r\n      if (keccak256(bytes(roles[i].description)) == keccak256(bytes(_role)) && keccak256(bytes(roles[i].account)) == keccak256(bytes(_account))){\r\n        hasParticularRole = true;\r\n        break;\r\n      }\r\n    }\r\n    return hasParticularRole;\r\n  }\r\n\r\n\r\n  function checkIfAdmin(string memory _account) public view returns (bool) {\r\n    bool isAdmin = false;\r\n    for(uint256 i=0; i<roles.length; i++){\r\n      if (keccak256(bytes(roles[i].description)) == keccak256(bytes(\"ADMIN\")) && keccak256(bytes(roles[i].account)) == keccak256(bytes(_account))){\r\n        isAdmin = true;\r\n        break;\r\n      }\r\n    }\r\n    return isAdmin;\r\n  }\r\n\r\n\r\n  function getAllRoles() public view returns (string[] memory, string[] memory)  {\r\n    string[] memory accounts = new string[](roles.length);\r\n    string[] memory accountRoles = new string[](roles.length);\r\n    for (uint256 i = 0; i < roles.length; i++) {\r\n        accounts[i] = roles[i].account;\r\n        accountRoles[i] = roles[i].description;\r\n    }\r\n    return (accounts, accountRoles);\r\n  }  \r\n  \r\n\r\n  function removeRole(uint index) public returns(bool) {\r\n    bool roleRemoved = false;\r\n    for (uint i = index; i<roles.length-1; i++){\r\n        roles[i] = roles[i+1];\r\n    }\r\n    delete roles[roles.length-1];\r\n    roles.length--;\r\n    roleRemoved = true;\r\n    return roleRemoved;\r\n  }\r\n\r\n}",
  "sourcePath": "C:/Users/Esmond Dsouza/Desktop/Files/Dissertation Projects/CrimeChain/src/contracts/RBAC.sol",
  "compiler": {
    "name": "solc",
    "version": "0.5.0+commit.1d4f565a.Emscripten.clang"
  },
  "schemaVersion": "3.0.2",
  "updatedAt": "2020-06-27T10:14:54.021Z",
  "devdoc": {
    "methods": {}
  },
  "userdoc": {
    "methods": {}
  }
}