{
  "contractName": "RBAC",
  "abi": [
    {
      "constant": true,
      "inputs": [
        {
          "name": "",
          "type": "uint256"
        }
      ],
      "name": "roles",
      "outputs": [
        {
          "name": "description",
          "type": "string"
        },
        {
          "name": "account",
          "type": "string"
        }
      ],
      "payable": false,
      "stateMutability": "view",
      "type": "function",
      "signature": "0xbfda4a49"
    },
    {
      "inputs": [],
      "payable": false,
      "stateMutability": "nonpayable",
      "type": "constructor",
      "signature": "constructor"
    },
    {
      "anonymous": false,
      "inputs": [
        {
          "indexed": false,
          "name": "role",
          "type": "uint256"
        }
      ],
      "name": "RoleCreated",
      "type": "event",
      "signature": "0x5ae7bf8c4c39be741ec8e27386e1453106504ca4b4351e28065a5ca97415d430"
    },
    {
      "anonymous": false,
      "inputs": [
        {
          "indexed": false,
          "name": "account",
          "type": "address"
        },
        {
          "indexed": false,
          "name": "role",
          "type": "uint256"
        }
      ],
      "name": "BearerAdded",
      "type": "event",
      "signature": "0xd81f2841f8b3997e1937995d307db36db75c385165bbad7916db26732d8ccb17"
    },
    {
      "anonymous": false,
      "inputs": [
        {
          "indexed": false,
          "name": "account",
          "type": "address"
        },
        {
          "indexed": false,
          "name": "role",
          "type": "uint256"
        }
      ],
      "name": "BearerRemoved",
      "type": "event",
      "signature": "0x18dd68c3b9a992261fefcaa58c659f0a628d54692027be4c0662c2365fbb819a"
    },
    {
      "constant": false,
      "inputs": [
        {
          "name": "_account",
          "type": "string"
        }
      ],
      "name": "addRootRole",
      "outputs": [
        {
          "name": "",
          "type": "uint256"
        }
      ],
      "payable": false,
      "stateMutability": "nonpayable",
      "type": "function",
      "signature": "0xf6169705"
    },
    {
      "constant": false,
      "inputs": [
        {
          "name": "_role",
          "type": "string"
        },
        {
          "name": "_account",
          "type": "string"
        }
      ],
      "name": "addRole",
      "outputs": [
        {
          "name": "",
          "type": "uint256"
        }
      ],
      "payable": false,
      "stateMutability": "nonpayable",
      "type": "function",
      "signature": "0xdd517fae"
    },
    {
      "constant": true,
      "inputs": [],
      "name": "totalRoles",
      "outputs": [
        {
          "name": "",
          "type": "uint256"
        }
      ],
      "payable": false,
      "stateMutability": "view",
      "type": "function",
      "signature": "0x790e118c"
    },
    {
      "constant": true,
      "inputs": [
        {
          "name": "_account",
          "type": "string"
        },
        {
          "name": "_role",
          "type": "string"
        }
      ],
      "name": "hasRole",
      "outputs": [
        {
          "name": "",
          "type": "bool"
        }
      ],
      "payable": false,
      "stateMutability": "view",
      "type": "function",
      "signature": "0x24e07913"
    },
    {
      "constant": true,
      "inputs": [
        {
          "name": "_account",
          "type": "string"
        }
      ],
      "name": "checkIfAdmin",
      "outputs": [
        {
          "name": "",
          "type": "bool"
        }
      ],
      "payable": false,
      "stateMutability": "view",
      "type": "function",
      "signature": "0xb8cb386d"
    }
  ],
  "bytecode": "0x60806040523480156200001157600080fd5b5062000088606060405190810160405280602a81526020017f307839443241443045613446304366323839354537363639633739643561393281526020017f3844303733316436373100000000000000000000000000000000000000000000815250620001e9640100000000026401000000009004565b50620001356040805190810160405280600281526020017f5257000000000000000000000000000000000000000000000000000000000000815250606060405190810160405280602a81526020017f307839443241443045613446304366323839354537363639633739643561393281526020017f3844303733316436373100000000000000000000000000000000000000000000815250620002b1640100000000026401000000009004565b50620001e26040805190810160405280600281526020017f5257000000000000000000000000000000000000000000000000000000000000815250606060405190810160405280602a81526020017f307837663646363139323062343938443033343831303732314562664439323881526020017f3964393032343733633600000000000000000000000000000000000000000000815250620002b1640100000000026401000000009004565b50620005c6565b6000806001600060408051908101604052806040805190810160405280600581526020017f41444d494e0000000000000000000000000000000000000000000000000000008152508152602001868152509080600181540180825580915050906001820390600052602060002090600302016000909192909190915060008201518160000190805190602001906200028392919062000517565b506020820151816001019080519060200190620002a292919062000517565b50505003905080915050919050565b60008060009050620002d2836200036a640100000000026401000000009004565b156200036057600160006040805190810160405280878152602001868152509080600181540180825580915050906001820390600052602060002090600302016000909192909190915060008201518160000190805190602001906200033a92919062000517565b5060208201518160010190805190602001906200035992919062000517565b5050500390505b8091505092915050565b6000806000905060008090505b6000805490508110156200050d576040805190810160405280600581526020017f41444d494e00000000000000000000000000000000000000000000000000000081525080519060200120600082815481101515620003d257fe5b90600052602060002090600302016000016040518082805460018160011615610100020316600290048015620004425780601f106200041f57610100808354040283529182019162000442565b820191906000526020600020905b8154815290600101906020018083116200042d575b50509150506040518091039020148015620004ef575083805190602001206000828154811015156200047057fe5b90600052602060002090600302016001016040518082805460018160011615610100020316600290048015620004e05780601f10620004bd576101008083540402835291820191620004e0565b820191906000526020600020905b815481529060010190602001808311620004cb575b50509150506040518091039020145b15620004ff57600191506200050d565b808060010191505062000377565b5080915050919050565b828054600181600116156101000203166002900490600052602060002090601f016020900481019282601f106200055a57805160ff19168380011785556200058b565b828001600101855582156200058b579182015b828111156200058a5782518255916020019190600101906200056d565b5b5090506200059a91906200059e565b5090565b620005c391905b80821115620005bf576000816000905550600101620005a5565b5090565b90565b610d2180620005d66000396000f3fe608060405260043610610078576000357c0100000000000000000000000000000000000000000000000000000000900463ffffffff16806324e079131461007d578063790e118c146101f4578063b8cb386d1461021f578063bfda4a49146102ff578063dd517fae1461041f578063f616970514610592575b600080fd5b34801561008957600080fd5b506101da600480360360408110156100a057600080fd5b81019080803590602001906401000000008111156100bd57600080fd5b8201836020820111156100cf57600080fd5b803590602001918460018302840111640100000000831117156100f157600080fd5b91908080601f016020809104026020016040519081016040528093929190818152602001838380828437600081840152601f19601f8201169050808301925050505050505091929192908035906020019064010000000081111561015457600080fd5b82018360208201111561016657600080fd5b8035906020019184600183028401116401000000008311171561018857600080fd5b91908080601f016020809104026020016040519081016040528093929190818152602001838380828437600081840152601f19601f82011690508083019250505050505050919291929050505061066e565b604051808215151515815260200191505060405180910390f35b34801561020057600080fd5b506102096107d8565b6040518082815260200191505060405180910390f35b34801561022b57600080fd5b506102e56004803603602081101561024257600080fd5b810190808035906020019064010000000081111561025f57600080fd5b82018360208201111561027157600080fd5b8035906020019184600183028401116401000000008311171561029357600080fd5b91908080601f016020809104026020016040519081016040528093929190818152602001838380828437600081840152601f19601f8201169050808301925050505050505091929192905050506107e8565b604051808215151515815260200191505060405180910390f35b34801561030b57600080fd5b506103386004803603602081101561032257600080fd5b8101908080359060200190929190505050610986565b604051808060200180602001838103835285818151815260200191508051906020019080838360005b8381101561037c578082015181840152602081019050610361565b50505050905090810190601f1680156103a95780820380516001836020036101000a031916815260200191505b50838103825284818151815260200191508051906020019080838360005b838110156103e25780820151818401526020810190506103c7565b50505050905090810190601f16801561040f5780820380516001836020036101000a031916815260200191505b5094505050505060405180910390f35b34801561042b57600080fd5b5061057c6004803603604081101561044257600080fd5b810190808035906020019064010000000081111561045f57600080fd5b82018360208201111561047157600080fd5b8035906020019184600183028401116401000000008311171561049357600080fd5b91908080601f016020809104026020016040519081016040528093929190818152602001838380828437600081840152601f19601f820116905080830192505050505050509192919290803590602001906401000000008111156104f657600080fd5b82018360208201111561050857600080fd5b8035906020019184600183028401116401000000008311171561052a57600080fd5b91908080601f016020809104026020016040519081016040528093929190818152602001838380828437600081840152601f19601f820116905080830192505050505050509192919290505050610ae9565b6040518082815260200191505060405180910390f35b34801561059e57600080fd5b50610658600480360360208110156105b557600080fd5b81019080803590602001906401000000008111156105d257600080fd5b8201836020820111156105e457600080fd5b8035906020019184600183028401116401000000008311171561060657600080fd5b91908080601f016020809104026020016040519081016040528093929190818152602001838380828437600081840152601f19601f820116905080830192505050505050509192919290505050610b8c565b6040518082815260200191505060405180910390f35b6000806000905060008090505b6000805490508110156107cd57838051906020012060008281548110151561069f57fe5b9060005260206000209060030201600001604051808280546001816001161561010002031660029004801561070b5780601f106106e957610100808354040283529182019161070b565b820191906000526020600020905b8154815290600101906020018083116106f7575b505091505060405180910390201480156107b25750848051906020012060008281548110151561073757fe5b906000526020600020906003020160010160405180828054600181600116156101000203166002900480156107a35780601f106107815761010080835404028352918201916107a3565b820191906000526020600020905b81548152906001019060200180831161078f575b50509150506040518091039020145b156107c057600191506107cd565b808060010191505061067b565b508091505092915050565b6000600160008054905003905090565b6000806000905060008090505b60008054905081101561097c576040805190810160405280600581526020017f41444d494e0000000000000000000000000000000000000000000000000000008152508051906020012060008281548110151561084e57fe5b906000526020600020906003020160000160405180828054600181600116156101000203166002900480156108ba5780601f106108985761010080835404028352918201916108ba565b820191906000526020600020905b8154815290600101906020018083116108a6575b50509150506040518091039020148015610961575083805190602001206000828154811015156108e657fe5b906000526020600020906003020160010160405180828054600181600116156101000203166002900480156109525780601f10610930576101008083540402835291820191610952565b820191906000526020600020905b81548152906001019060200180831161093e575b50509150506040518091039020145b1561096f576001915061097c565b80806001019150506107f5565b5080915050919050565b60008181548110151561099557fe5b9060005260206000209060030201600091509050806000018054600181600116156101000203166002900480601f016020809104026020016040519081016040528092919081815260200182805460018160011615610100020316600290048015610a415780601f10610a1657610100808354040283529160200191610a41565b820191906000526020600020905b815481529060010190602001808311610a2457829003601f168201915b505050505090806001018054600181600116156101000203166002900480601f016020809104026020016040519081016040528092919081815260200182805460018160011615610100020316600290048015610adf5780601f10610ab457610100808354040283529160200191610adf565b820191906000526020600020905b815481529060010190602001808311610ac257829003601f168201915b5050505050905082565b60008060009050610af9836107e8565b15610b825760016000604080519081016040528087815260200186815250908060018154018082558091505090600182039060005260206000209060030201600090919290919091506000820151816000019080519060200190610b5e929190610c50565b506020820151816001019080519060200190610b7b929190610c50565b5050500390505b8091505092915050565b6000806001600060408051908101604052806040805190810160405280600581526020017f41444d494e000000000000000000000000000000000000000000000000000000815250815260200186815250908060018154018082558091505090600182039060005260206000209060030201600090919290919091506000820151816000019080519060200190610c24929190610c50565b506020820151816001019080519060200190610c41929190610c50565b50505003905080915050919050565b828054600181600116156101000203166002900490600052602060002090601f016020900481019282601f10610c9157805160ff1916838001178555610cbf565b82800160010185558215610cbf579182015b82811115610cbe578251825591602001919060010190610ca3565b5b509050610ccc9190610cd0565b5090565b610cf291905b80821115610cee576000816000905550600101610cd6565b5090565b9056fea165627a7a7230582040544764628e526eec68934ecaa7e96a997edcef077d22b0f42f07c0576b1f8a0029",
  "source": "pragma solidity ^0.5.0;\r\n\r\n\r\ncontract RBAC {\r\n\r\n  event RoleCreated(uint256 role);\r\n  event BearerAdded(address account, uint256 role);\r\n  event BearerRemoved(address account, uint256 role);\r\n  string constant NO_ROLE = '0x9D2AD0Ea4F0Cf2895E7669c79d5a928D0731d671';\r\n  \r\n\r\n  struct Role {\r\n    string description;\r\n    string account;\r\n    mapping (address => bool) bearers;\r\n  }\r\n  \r\n\r\n  Role[] public roles;\r\n  constructor() public {\r\n    addRootRole(\"0x9D2AD0Ea4F0Cf2895E7669c79d5a928D0731d671\");\r\n    addRole(\"RW\", \"0x9D2AD0Ea4F0Cf2895E7669c79d5a928D0731d671\");\r\n    addRole(\"RW\", \"0x7f6F61920b498D034810721EbfD9289d902473c6\");\r\n  }\r\n  \r\n\r\n  function addRootRole(string memory _account) public returns(uint256){\r\n    uint256  role = roles.push(\r\n      Role({\r\n        description: \"ADMIN\",\r\n        account: _account\r\n      })\r\n    ) - 1;\r\n    return role;\r\n  }\r\n\r\n\r\n  function addRole(string memory _role, string memory _account) public returns(uint256) {\r\n    uint256 role = 0;\r\n    if(checkIfAdmin(_account)){\r\n      role = roles.push(\r\n        Role({\r\n          description: _role,\r\n          account: _account\r\n        })\r\n      ) - 1;\r\n    }\r\n    return role;\r\n  }\r\n  \r\n\r\n  function totalRoles() public view returns(uint256) {\r\n    return roles.length - 1;\r\n  }\r\n\r\n  \r\n  function hasRole(string memory _account, string memory _role) public view returns(bool) {\r\n    bool hasParticularRole = false;\r\n    for(uint256 i=0; i<roles.length; i++){\r\n      if (keccak256(bytes(roles[i].description)) == keccak256(bytes(_role)) && keccak256(bytes(roles[i].account)) == keccak256(bytes(_account))){\r\n        hasParticularRole = true;\r\n        break;\r\n      }\r\n    }\r\n    return hasParticularRole;\r\n  }\r\n\r\n\r\n  function checkIfAdmin(string memory _account) public view returns (bool) {\r\n    bool isAdmin = false;\r\n    for(uint256 i=0; i<roles.length; i++){\r\n      if (keccak256(bytes(roles[i].description)) == keccak256(bytes(\"ADMIN\")) && keccak256(bytes(roles[i].account)) == keccak256(bytes(_account))){\r\n        isAdmin = true;\r\n        break;\r\n      }\r\n    }\r\n    return isAdmin;\r\n  }\r\n\r\n}",
  "sourcePath": "C:/Users/Esmond Dsouza/Desktop/Files/Dissertation Projects/CrimeChain/src/contracts/RBAC.sol",
  "compiler": {
    "name": "solc",
    "version": "0.5.0+commit.1d4f565a.Emscripten.clang"
  },
  "schemaVersion": "3.0.2",
  "updatedAt": "2020-06-26T10:16:40.167Z",
  "devdoc": {
    "methods": {}
  },
  "userdoc": {
    "methods": {}
  }
}