{
  "contractName": "RBAC",
  "abi": [
    {
      "constant": true,
      "inputs": [
        {
          "name": "",
          "type": "uint256"
        }
      ],
      "name": "roles",
      "outputs": [
        {
          "name": "description",
          "type": "string"
        },
        {
          "name": "admin",
          "type": "uint256"
        }
      ],
      "payable": false,
      "stateMutability": "view",
      "type": "function",
      "signature": "0xbfda4a49"
    },
    {
      "inputs": [],
      "payable": false,
      "stateMutability": "nonpayable",
      "type": "constructor",
      "signature": "constructor"
    },
    {
      "anonymous": false,
      "inputs": [
        {
          "indexed": false,
          "name": "role",
          "type": "uint256"
        }
      ],
      "name": "RoleCreated",
      "type": "event",
      "signature": "0x5ae7bf8c4c39be741ec8e27386e1453106504ca4b4351e28065a5ca97415d430"
    },
    {
      "anonymous": false,
      "inputs": [
        {
          "indexed": false,
          "name": "account",
          "type": "address"
        },
        {
          "indexed": false,
          "name": "role",
          "type": "uint256"
        }
      ],
      "name": "BearerAdded",
      "type": "event",
      "signature": "0xd81f2841f8b3997e1937995d307db36db75c385165bbad7916db26732d8ccb17"
    },
    {
      "anonymous": false,
      "inputs": [
        {
          "indexed": false,
          "name": "account",
          "type": "address"
        },
        {
          "indexed": false,
          "name": "role",
          "type": "uint256"
        }
      ],
      "name": "BearerRemoved",
      "type": "event",
      "signature": "0x18dd68c3b9a992261fefcaa58c659f0a628d54692027be4c0662c2365fbb819a"
    },
    {
      "constant": false,
      "inputs": [
        {
          "name": "_roleDescription",
          "type": "string"
        }
      ],
      "name": "addRootRole",
      "outputs": [
        {
          "name": "",
          "type": "uint256"
        }
      ],
      "payable": false,
      "stateMutability": "nonpayable",
      "type": "function",
      "signature": "0xf6169705"
    },
    {
      "constant": false,
      "inputs": [
        {
          "name": "_roleDescription",
          "type": "string"
        },
        {
          "name": "_admin",
          "type": "uint256"
        }
      ],
      "name": "addRole",
      "outputs": [
        {
          "name": "",
          "type": "uint256"
        }
      ],
      "payable": false,
      "stateMutability": "nonpayable",
      "type": "function",
      "signature": "0xa02be771"
    },
    {
      "constant": true,
      "inputs": [],
      "name": "totalRoles",
      "outputs": [
        {
          "name": "",
          "type": "uint256"
        }
      ],
      "payable": false,
      "stateMutability": "view",
      "type": "function",
      "signature": "0x790e118c"
    },
    {
      "constant": true,
      "inputs": [
        {
          "name": "_account",
          "type": "address"
        },
        {
          "name": "_role",
          "type": "uint256"
        }
      ],
      "name": "hasRole",
      "outputs": [
        {
          "name": "",
          "type": "bool"
        }
      ],
      "payable": false,
      "stateMutability": "view",
      "type": "function",
      "signature": "0x5c97f4a2"
    },
    {
      "constant": false,
      "inputs": [
        {
          "name": "_account",
          "type": "address"
        },
        {
          "name": "_role",
          "type": "uint256"
        }
      ],
      "name": "addBearer",
      "outputs": [],
      "payable": false,
      "stateMutability": "nonpayable",
      "type": "function",
      "signature": "0x80fce6a5"
    },
    {
      "constant": false,
      "inputs": [
        {
          "name": "_account",
          "type": "address"
        },
        {
          "name": "_role",
          "type": "uint256"
        }
      ],
      "name": "removeBearer",
      "outputs": [],
      "payable": false,
      "stateMutability": "nonpayable",
      "type": "function",
      "signature": "0xe65cd6e3"
    }
  ],
  "bytecode": "0x60806040523480156200001157600080fd5b50620000616040805190810160405280600781526020017f4e4f5f524f4c450000000000000000000000000000000000000000000000000081525062000068640100000000026401000000009004565b5062000358565b6000806200008b8360008054905062000175640100000000026401000000009004565b905060016000828154811015156200009f57fe5b906000526020600020906003020160020160003373ffffffffffffffffffffffffffffffffffffffff1673ffffffffffffffffffffffffffffffffffffffff16815260200190815260200160002060006101000a81548160ff0219169083151502179055507fd81f2841f8b3997e1937995d307db36db75c385165bbad7916db26732d8ccb173382604051808373ffffffffffffffffffffffffffffffffffffffff1673ffffffffffffffffffffffffffffffffffffffff1681526020018281526020019250505060405180910390a150919050565b600080805490508211151515620001f4576040517f08c379a00000000000000000000000000000000000000000000000000000000081526004018080602001828103825260198152602001807f41646d696e20726f6c6520646f65736e27742065786973742e0000000000000081525060200191505060405180910390fd5b60006001600060408051908101604052808781526020018681525090806001815401808255809150509060018203906000526020600020906003020160009091929091909150600082015181600001908051906020019062000258929190620002a9565b506020820151816001015550500390507f5ae7bf8c4c39be741ec8e27386e1453106504ca4b4351e28065a5ca97415d430816040518082815260200191505060405180910390a18091505092915050565b828054600181600116156101000203166002900490600052602060002090601f016020900481019282601f10620002ec57805160ff19168380011785556200031d565b828001600101855582156200031d579182015b828111156200031c578251825591602001919060010190620002ff565b5b5090506200032c919062000330565b5090565b6200035591905b808211156200035157600081600090555060010162000337565b5090565b90565b610da780620003686000396000f3fe608060405260043610610083576000357c0100000000000000000000000000000000000000000000000000000000900463ffffffff1680635c97f4a214610088578063790e118c146100fb57806380fce6a514610126578063a02be77114610181578063bfda4a4914610267578063e65cd6e314610322578063f61697051461037d575b600080fd5b34801561009457600080fd5b506100e1600480360360408110156100ab57600080fd5b81019080803573ffffffffffffffffffffffffffffffffffffffff16906020019092919080359060200190929190505050610459565b604051808215151515815260200191505060405180910390f35b34801561010757600080fd5b506101106104dd565b6040518082815260200191505060405180910390f35b34801561013257600080fd5b5061017f6004803603604081101561014957600080fd5b81019080803573ffffffffffffffffffffffffffffffffffffffff169060200190929190803590602001909291905050506104ed565b005b34801561018d57600080fd5b50610251600480360360408110156101a457600080fd5b81019080803590602001906401000000008111156101c157600080fd5b8201836020820111156101d357600080fd5b803590602001918460018302840111640100000000831117156101f557600080fd5b91908080601f016020809104026020016040519081016040528093929190818152602001838380828437600081840152601f19601f8201169050808301925050505050505091929192908035906020019092919050505061076b565b6040518082815260200191505060405180910390f35b34801561027357600080fd5b506102a06004803603602081101561028a57600080fd5b810190808035906020019092919050505061089c565b6040518080602001838152602001828103825284818151815260200191508051906020019080838360005b838110156102e65780820151818401526020810190506102cb565b50505050905090810190601f1680156103135780820380516001836020036101000a031916815260200191505b50935050505060405180910390f35b34801561032e57600080fd5b5061037b6004803603604081101561034557600080fd5b81019080803573ffffffffffffffffffffffffffffffffffffffff16906020019092919080359060200190929190505050610967565b005b34801561038957600080fd5b50610443600480360360208110156103a057600080fd5b81019080803590602001906401000000008111156103bd57600080fd5b8201836020820111156103cf57600080fd5b803590602001918460018302840111640100000000831117156103f157600080fd5b91908080601f016020809104026020016040519081016040528093929190818152602001838380828437600081840152601f19601f820116905080830192505050505050509192919290505050610bdb565b6040518082815260200191505060405180910390f35b60008080549050821080156104d5575060008281548110151561047857fe5b906000526020600020906003020160020160008473ffffffffffffffffffffffffffffffffffffffff1673ffffffffffffffffffffffffffffffffffffffff16815260200190815260200160002060009054906101000a900460ff165b905092915050565b6000600160008054905003905090565b60008054905081101515610569576040517f08c379a00000000000000000000000000000000000000000000000000000000081526004018080602001828103825260138152602001807f526f6c6520646f65736e27742065786973742e0000000000000000000000000081525060200191505060405180910390fd5b6105933360008381548110151561057c57fe5b906000526020600020906003020160010154610459565b1515610607576040517f08c379a00000000000000000000000000000000000000000000000000000000081526004018080602001828103825260178152602001807f557365722063616e27742061646420626561726572732e00000000000000000081525060200191505060405180910390fd5b6106118282610459565b151515610686576040517f08c379a000000000000000000000000000000000000000000000000000000000815260040180806020018281038252601a8152602001807f4163636f756e7420697320626561726572206f6620726f6c652e00000000000081525060200191505060405180910390fd5b600160008281548110151561069757fe5b906000526020600020906003020160020160008473ffffffffffffffffffffffffffffffffffffffff1673ffffffffffffffffffffffffffffffffffffffff16815260200190815260200160002060006101000a81548160ff0219169083151502179055507fd81f2841f8b3997e1937995d307db36db75c385165bbad7916db26732d8ccb178282604051808373ffffffffffffffffffffffffffffffffffffffff1673ffffffffffffffffffffffffffffffffffffffff1681526020018281526020019250505060405180910390a15050565b6000808054905082111515156107e9576040517f08c379a00000000000000000000000000000000000000000000000000000000081526004018080602001828103825260198152602001807f41646d696e20726f6c6520646f65736e27742065786973742e0000000000000081525060200191505060405180910390fd5b60006001600060408051908101604052808781526020018681525090806001815401808255809150509060018203906000526020600020906003020160009091929091909150600082015181600001908051906020019061084b929190610cd6565b506020820151816001015550500390507f5ae7bf8c4c39be741ec8e27386e1453106504ca4b4351e28065a5ca97415d430816040518082815260200191505060405180910390a18091505092915050565b6000818154811015156108ab57fe5b9060005260206000209060030201600091509050806000018054600181600116156101000203166002900480601f0160208091040260200160405190810160405280929190818152602001828054600181600116156101000203166002900480156109575780601f1061092c57610100808354040283529160200191610957565b820191906000526020600020905b81548152906001019060200180831161093a57829003601f168201915b5050505050908060010154905082565b600080549050811015156109e3576040517f08c379a00000000000000000000000000000000000000000000000000000000081526004018080602001828103825260138152602001807f526f6c6520646f65736e27742065786973742e0000000000000000000000000081525060200191505060405180910390fd5b610a0d336000838154811015156109f657fe5b906000526020600020906003020160010154610459565b1515610a81576040517f08c379a000000000000000000000000000000000000000000000000000000000815260040180806020018281038252601a8152602001807f557365722063616e27742072656d6f766520626561726572732e00000000000081525060200191505060405180910390fd5b610a8b8282610459565b1515610aff576040517f08c379a000000000000000000000000000000000000000000000000000000000815260040180806020018281038252601e8152602001807f4163636f756e74206973206e6f7420626561726572206f6620726f6c652e000081525060200191505060405180910390fd5b600081815481101515610b0e57fe5b906000526020600020906003020160020160008373ffffffffffffffffffffffffffffffffffffffff1673ffffffffffffffffffffffffffffffffffffffff16815260200190815260200160002060006101000a81549060ff02191690557f18dd68c3b9a992261fefcaa58c659f0a628d54692027be4c0662c2365fbb819a8282604051808373ffffffffffffffffffffffffffffffffffffffff1673ffffffffffffffffffffffffffffffffffffffff1681526020018281526020019250505060405180910390a15050565b600080610bed8360008054905061076b565b90506001600082815481101515610c0057fe5b906000526020600020906003020160020160003373ffffffffffffffffffffffffffffffffffffffff1673ffffffffffffffffffffffffffffffffffffffff16815260200190815260200160002060006101000a81548160ff0219169083151502179055507fd81f2841f8b3997e1937995d307db36db75c385165bbad7916db26732d8ccb173382604051808373ffffffffffffffffffffffffffffffffffffffff1673ffffffffffffffffffffffffffffffffffffffff1681526020018281526020019250505060405180910390a150919050565b828054600181600116156101000203166002900490600052602060002090601f016020900481019282601f10610d1757805160ff1916838001178555610d45565b82800160010185558215610d45579182015b82811115610d44578251825591602001919060010190610d29565b5b509050610d529190610d56565b5090565b610d7891905b80821115610d74576000816000905550600101610d5c565b5090565b9056fea165627a7a72305820897daa708f34f7c3c8d5b89403d73fb7891dfef2eb5c9e7ea87e08525b6c46190029",
  "source": "pragma solidity ^0.5.0;\r\n\r\n\r\ncontract RBAC {\r\n  event RoleCreated(uint256 role);\r\n  event BearerAdded(address account, uint256 role);\r\n  event BearerRemoved(address account, uint256 role);\r\n  uint256 constant NO_ROLE = 0;\r\n  \r\n  struct Role {\r\n    string description;\r\n    uint256 admin;\r\n    mapping (address => bool) bearers;\r\n  }\r\n  \r\n\r\n  Role[] public roles;\r\n  constructor() public {\r\n    addRootRole(\"NO_ROLE\");\r\n  }\r\n  \r\n  function addRootRole(string memory _roleDescription) public returns(uint256)\r\n  {\r\n    uint256 role = addRole(_roleDescription, roles.length);\r\n    roles[role].bearers[msg.sender] = true;\r\n    emit BearerAdded(msg.sender, role);\r\n  }\r\n  \r\n  function addRole(string memory _roleDescription, uint256 _admin) public returns(uint256) {\r\n    require(_admin <= roles.length, \"Admin role doesn't exist.\");\r\n    uint256 role = roles.push(\r\n      Role({\r\n        description: _roleDescription,\r\n        admin: _admin\r\n      })\r\n    ) - 1;\r\n    emit RoleCreated(role);\r\n    return role;\r\n  }\r\n  \r\n  function totalRoles() public view returns(uint256) {\r\n    return roles.length - 1;\r\n  }\r\n  \r\n  function hasRole(address _account, uint256 _role) public view returns(bool) {\r\n    return _role < roles.length && roles[_role].bearers[_account];\r\n  }\r\n  \r\n  function addBearer(address _account, uint256 _role) public {\r\n    require(\r\n      _role < roles.length,\r\n      \"Role doesn't exist.\"\r\n    );\r\n    require(\r\n      hasRole(msg.sender, roles[_role].admin),\r\n      \"User can't add bearers.\"\r\n    );\r\n    require(\r\n      !hasRole(_account, _role),\r\n      \"Account is bearer of role.\"\r\n    );\r\n    roles[_role].bearers[_account] = true;\r\n    emit BearerAdded(_account, _role);\r\n  }\r\n  \r\n  function removeBearer(address _account, uint256 _role) public {\r\n    require(\r\n      _role < roles.length,\r\n      \"Role doesn't exist.\"\r\n    );\r\n    require(\r\n      hasRole(msg.sender, roles[_role].admin),\r\n      \"User can't remove bearers.\"\r\n    );\r\n    require(\r\n      hasRole(_account, _role),\r\n      \"Account is not bearer of role.\"\r\n    );\r\n    delete roles[_role].bearers[_account];\r\n    emit BearerRemoved(_account, _role);\r\n  }\r\n}",
  "sourcePath": "C:/Users/Esmond Dsouza/Desktop/Files/Dissertation Projects/CrimeChain/src/contracts/RBAC.sol",
  "compiler": {
    "name": "solc",
    "version": "0.5.0+commit.1d4f565a.Emscripten.clang"
  },
  "schemaVersion": "3.0.2",
  "updatedAt": "2020-06-24T15:29:29.600Z",
  "devdoc": {
    "methods": {}
  },
  "userdoc": {
    "methods": {}
  }
}