{
  "contractName": "RBAC",
  "abi": [
    {
      "constant": true,
      "inputs": [
        {
          "name": "",
          "type": "uint256"
        }
      ],
      "name": "roles",
      "outputs": [
        {
          "name": "description",
          "type": "string"
        },
        {
          "name": "account",
          "type": "string"
        },
        {
          "name": "assigningAccount",
          "type": "string"
        },
        {
          "name": "timestamp",
          "type": "uint256"
        },
        {
          "name": "policeStationId",
          "type": "string"
        }
      ],
      "payable": false,
      "stateMutability": "view",
      "type": "function"
    },
    {
      "inputs": [],
      "payable": false,
      "stateMutability": "nonpayable",
      "type": "constructor"
    },
    {
      "constant": false,
      "inputs": [
        {
          "name": "_role",
          "type": "string"
        },
        {
          "name": "_account",
          "type": "string"
        },
        {
          "name": "_assigningAccount",
          "type": "string"
        },
        {
          "name": "_timestamp",
          "type": "uint256"
        },
        {
          "name": "_policeStationId",
          "type": "string"
        }
      ],
      "name": "addRole",
      "outputs": [
        {
          "name": "",
          "type": "uint256"
        }
      ],
      "payable": false,
      "stateMutability": "nonpayable",
      "type": "function"
    },
    {
      "constant": true,
      "inputs": [],
      "name": "totalRoles",
      "outputs": [
        {
          "name": "",
          "type": "uint256"
        }
      ],
      "payable": false,
      "stateMutability": "view",
      "type": "function"
    },
    {
      "constant": true,
      "inputs": [
        {
          "name": "_account",
          "type": "string"
        },
        {
          "name": "_role",
          "type": "string"
        }
      ],
      "name": "hasRole",
      "outputs": [
        {
          "name": "",
          "type": "bool"
        }
      ],
      "payable": false,
      "stateMutability": "view",
      "type": "function"
    },
    {
      "constant": true,
      "inputs": [
        {
          "name": "_account",
          "type": "string"
        }
      ],
      "name": "checkIfAdmin",
      "outputs": [
        {
          "name": "",
          "type": "bool"
        }
      ],
      "payable": false,
      "stateMutability": "view",
      "type": "function"
    },
    {
      "constant": true,
      "inputs": [],
      "name": "getAllRoles",
      "outputs": [
        {
          "name": "",
          "type": "string[]"
        },
        {
          "name": "",
          "type": "string[]"
        },
        {
          "name": "",
          "type": "string[]"
        },
        {
          "name": "",
          "type": "uint256[]"
        },
        {
          "name": "",
          "type": "string[]"
        }
      ],
      "payable": false,
      "stateMutability": "view",
      "type": "function"
    },
    {
      "constant": true,
      "inputs": [
        {
          "name": "_account",
          "type": "string"
        },
        {
          "name": "_role",
          "type": "string"
        }
      ],
      "name": "getRoleDetails",
      "outputs": [
        {
          "name": "",
          "type": "string"
        },
        {
          "name": "",
          "type": "string"
        }
      ],
      "payable": false,
      "stateMutability": "view",
      "type": "function"
    },
    {
      "constant": false,
      "inputs": [
        {
          "name": "index",
          "type": "uint256"
        }
      ],
      "name": "removeRole",
      "outputs": [
        {
          "name": "",
          "type": "bool"
        }
      ],
      "payable": false,
      "stateMutability": "nonpayable",
      "type": "function"
    }
  ],
  "bytecode": "0x60806040523480156200001157600080fd5b506200012b6040805190810160405280600581526020017f41444d494e000000000000000000000000000000000000000000000000000000815250606060405190810160405280602a81526020017f307839443241443045613446304366323839354537363639633739643561393281526020017f38443037333164363731000000000000000000000000000000000000000000008152506040805190810160405280600681526020017f53797374656d0000000000000000000000000000000000000000000000000000815250426040805190810160405280600481526020017f31323334000000000000000000000000000000000000000000000000000000008152506200024c640100000000026401000000009004565b50620002456040805190810160405280600281526020017f5257000000000000000000000000000000000000000000000000000000000000815250606060405190810160405280602a81526020017f307839443241443045613446304366323839354537363639633739643561393281526020017f38443037333164363731000000000000000000000000000000000000000000008152506040805190810160405280600681526020017f53797374656d0000000000000000000000000000000000000000000000000000815250426040805190810160405280600481526020017f31323334000000000000000000000000000000000000000000000000000000008152506200024c640100000000026401000000009004565b50620003f1565b600080600090506001600060a0604051908101604052808a815260200189815260200188815260200187815260200186815250908060018154018082558091505090600182039060005260206000209060050201600090919290919091506000820151816000019080519060200190620002c892919062000342565b506020820151816001019080519060200190620002e792919062000342565b5060408201518160020190805190602001906200030692919062000342565b506060820151816003015560808201518160040190805190602001906200032f92919062000342565b5050500390508091505095945050505050565b828054600181600116156101000203166002900490600052602060002090601f016020900481019282601f106200038557805160ff1916838001178555620003b6565b82800160010185558215620003b6579182015b82811115620003b557825182559160200191906001019062000398565b5b509050620003c59190620003c9565b5090565b620003ee91905b80821115620003ea576000816000905550600101620003d0565b5090565b90565b611aea80620004016000396000f3fe60806040526004361061008e576000357c0100000000000000000000000000000000000000000000000000000000900463ffffffff1680631870aba31461009357806324e07913146100d1578063527be6881461010e578063790e118c1461014b5780639269182114610176578063b8cb386d146101b3578063bfda4a49146101f0578063f2bcac3d14610231575b600080fd5b34801561009f57600080fd5b506100ba60048036036100b59190810190611573565b610260565b6040516100c89291906118c3565b60405180910390f35b3480156100dd57600080fd5b506100f860048036036100f39190810190611573565b610567565b60405161010591906118a8565b60405180910390f35b34801561011a57600080fd5b50610135600480360361013091908101906115df565b6106d1565b6040516101429190611969565b60405180910390f35b34801561015757600080fd5b506101606107bf565b60405161016d9190611969565b60405180910390f35b34801561018257600080fd5b5061019d600480360361019891908101906116b6565b6107cf565b6040516101aa91906118a8565b60405180910390f35b3480156101bf57600080fd5b506101da60048036036101d59190810190611532565b610977565b6040516101e791906118a8565b60405180910390f35b3480156101fc57600080fd5b50610217600480360361021291908101906116b6565b610b15565b6040516102289594939291906118fa565b60405180910390f35b34801561023d57600080fd5b50610246610dba565b604051610257959493929190611832565b60405180910390f35b60608060606020604051908101604052806000815250905060606020604051908101604052806000815250905060008090505b6000805490508110156105575785805190602001206000828154811015156102b757fe5b906000526020600020906005020160000160405180828054600181600116156101000203166002900480156103235780601f10610301576101008083540402835291820191610323565b820191906000526020600020905b81548152906001019060200180831161030f575b505091505060405180910390201480156103ca5750868051906020012060008281548110151561034f57fe5b906000526020600020906005020160010160405180828054600181600116156101000203166002900480156103bb5780601f106103995761010080835404028352918201916103bb565b820191906000526020600020905b8154815290600101906020018083116103a7575b50509150506040518091039020145b1561054a576000818154811015156103de57fe5b90600052602060002090600502016002018054600181600116156101000203166002900480601f0160208091040260200160405190810160405280929190818152602001828054600181600116156101000203166002900480156104835780601f1061045857610100808354040283529160200191610483565b820191906000526020600020905b81548152906001019060200180831161046657829003601f168201915b5050505050925060008181548110151561049957fe5b90600052602060002090600502016004018054600181600116156101000203166002900480601f01602080910402602001604051908101604052809291908181526020018280546001816001161561010002031660029004801561053e5780601f106105135761010080835404028352916020019161053e565b820191906000526020600020905b81548152906001019060200180831161052157829003601f168201915b50505050509150610557565b8080600101915050610293565b5081819350935050509250929050565b6000806000905060008090505b6000805490508110156106c657838051906020012060008281548110151561059857fe5b906000526020600020906005020160000160405180828054600181600116156101000203166002900480156106045780601f106105e2576101008083540402835291820191610604565b820191906000526020600020905b8154815290600101906020018083116105f0575b505091505060405180910390201480156106ab5750848051906020012060008281548110151561063057fe5b9060005260206000209060050201600101604051808280546001816001161561010002031660029004801561069c5780601f1061067a57610100808354040283529182019161069c565b820191906000526020600020905b815481529060010190602001808311610688575b50509150506040518091039020145b156106b957600191506106c6565b8080600101915050610574565b508091505092915050565b600080600090506001600060a0604051908101604052808a81526020018981526020018881526020018781526020018681525090806001815401808255809150509060018203906000526020600020906005020160009091929091909150600082015181600001908051906020019061074b9291906112bb565b5060208201518160010190805190602001906107689291906112bb565b5060408201518160020190805190602001906107859291906112bb565b506060820151816003015560808201518160040190805190602001906107ac9291906112bb565b5050500390508091505095945050505050565b6000600160008054905003905090565b6000806000905060008390505b6001600080549050038110156108e3576000600182018154811015156107fe57fe5b906000526020600020906005020160008281548110151561081b57fe5b90600052602060002090600502016000820181600001908054600181600116156101000203166002900461085092919061133b565b506001820181600101908054600181600116156101000203166002900461087892919061133b565b50600282018160020190805460018160011615610100020316600290046108a092919061133b565b5060038201548160030155600482018160040190805460018160011615610100020316600290046108d292919061133b565b5090505080806001019150506107dc565b5060006001600080549050038154811015156108fb57fe5b90600052602060002090600502016000808201600061091a91906113c2565b60018201600061092a91906113c2565b60028201600061093a91906113c2565b600382016000905560048201600061095291906113c2565b50506000805480919060019003610969919061140a565b506001905080915050919050565b6000806000905060008090505b600080549050811015610b0b576040805190810160405280600581526020017f41444d494e000000000000000000000000000000000000000000000000000000815250805190602001206000828154811015156109dd57fe5b90600052602060002090600502016000016040518082805460018160011615610100020316600290048015610a495780601f10610a27576101008083540402835291820191610a49565b820191906000526020600020905b815481529060010190602001808311610a35575b50509150506040518091039020148015610af057508380519060200120600082815481101515610a7557fe5b90600052602060002090600502016001016040518082805460018160011615610100020316600290048015610ae15780601f10610abf576101008083540402835291820191610ae1565b820191906000526020600020905b815481529060010190602001808311610acd575b50509150506040518091039020145b15610afe5760019150610b0b565b8080600101915050610984565b5080915050919050565b600081815481101515610b2457fe5b9060005260206000209060050201600091509050806000018054600181600116156101000203166002900480601f016020809104026020016040519081016040528092919081815260200182805460018160011615610100020316600290048015610bd05780601f10610ba557610100808354040283529160200191610bd0565b820191906000526020600020905b815481529060010190602001808311610bb357829003601f168201915b505050505090806001018054600181600116156101000203166002900480601f016020809104026020016040519081016040528092919081815260200182805460018160011615610100020316600290048015610c6e5780601f10610c4357610100808354040283529160200191610c6e565b820191906000526020600020905b815481529060010190602001808311610c5157829003601f168201915b505050505090806002018054600181600116156101000203166002900480601f016020809104026020016040519081016040528092919081815260200182805460018160011615610100020316600290048015610d0c5780601f10610ce157610100808354040283529160200191610d0c565b820191906000526020600020905b815481529060010190602001808311610cef57829003601f168201915b505050505090806003015490806004018054600181600116156101000203166002900480601f016020809104026020016040519081016040528092919081815260200182805460018160011615610100020316600290048015610db05780601f10610d8557610100808354040283529160200191610db0565b820191906000526020600020905b815481529060010190602001808311610d9357829003601f168201915b5050505050905085565b606080606080606080600080549050604051908082528060200260200182016040528015610dfc57816020015b6060815260200190600190039081610de75790505b5090506060600080549050604051908082528060200260200182016040528015610e3a57816020015b6060815260200190600190039081610e255790505b5090506060600080549050604051908082528060200260200182016040528015610e7857816020015b6060815260200190600190039081610e635790505b5090506060600080549050604051908082528060200260200182016040528015610eb15781602001602082028038833980820191505090505b5090506060600080549050604051908082528060200260200182016040528015610eef57816020015b6060815260200190600190039081610eda5790505b50905060008090505b60008054905081101561129f57600081815481101515610f1457fe5b90600052602060002090600502016001018054600181600116156101000203166002900480601f016020809104026020016040519081016040528092919081815260200182805460018160011615610100020316600290048015610fb95780601f10610f8e57610100808354040283529160200191610fb9565b820191906000526020600020905b815481529060010190602001808311610f9c57829003601f168201915b50505050508682815181101515610fcc57fe5b90602001906020020181905250600081815481101515610fe857fe5b90600052602060002090600502016000018054600181600116156101000203166002900480601f01602080910402602001604051908101604052809291908181526020018280546001816001161561010002031660029004801561108d5780601f106110625761010080835404028352916020019161108d565b820191906000526020600020905b81548152906001019060200180831161107057829003601f168201915b505050505085828151811015156110a057fe5b906020019060200201819052506000818154811015156110bc57fe5b90600052602060002090600502016002018054600181600116156101000203166002900480601f0160208091040260200160405190810160405280929190818152602001828054600181600116156101000203166002900480156111615780601f1061113657610100808354040283529160200191611161565b820191906000526020600020905b81548152906001019060200180831161114457829003601f168201915b5050505050848281518110151561117457fe5b9060200190602002018190525060008181548110151561119057fe5b90600052602060002090600502016003015483828151811015156111b057fe5b90602001906020020181815250506000818154811015156111cd57fe5b90600052602060002090600502016004018054600181600116156101000203166002900480601f0160208091040260200160405190810160405280929190818152602001828054600181600116156101000203166002900480156112725780601f1061124757610100808354040283529160200191611272565b820191906000526020600020905b81548152906001019060200180831161125557829003601f168201915b5050505050828281518110151561128557fe5b906020019060200201819052508080600101915050610ef8565b5084848484849950995099509950995050505050509091929394565b828054600181600116156101000203166002900490600052602060002090601f016020900481019282601f106112fc57805160ff191683800117855561132a565b8280016001018555821561132a579182015b8281111561132957825182559160200191906001019061130e565b5b509050611337919061143c565b5090565b828054600181600116156101000203166002900490600052602060002090601f016020900481019282601f1061137457805485556113b1565b828001600101855582156113b157600052602060002091601f016020900482015b828111156113b0578254825591600101919060010190611395565b5b5090506113be919061143c565b5090565b50805460018160011615610100020316600290046000825580601f106113e85750611407565b601f016020900490600052602060002090810190611406919061143c565b5b50565b815481835581811115611437576005028160050283600052602060002091820191016114369190611461565b5b505050565b61145e91905b8082111561145a576000816000905550600101611442565b5090565b90565b6114c591905b808211156114c1576000808201600061148091906113c2565b60018201600061149091906113c2565b6002820160006114a091906113c2565b60038201600090556004820160006114b891906113c2565b50600501611467565b5090565b90565b600082601f83011215156114db57600080fd5b81356114ee6114e9826119b1565b611984565b9150808252602083016020830185838301111561150a57600080fd5b611515838284611a5d565b50505092915050565b600061152a8235611a53565b905092915050565b60006020828403121561154457600080fd5b600082013567ffffffffffffffff81111561155e57600080fd5b61156a848285016114c8565b91505092915050565b6000806040838503121561158657600080fd5b600083013567ffffffffffffffff8111156115a057600080fd5b6115ac858286016114c8565b925050602083013567ffffffffffffffff8111156115c957600080fd5b6115d5858286016114c8565b9150509250929050565b600080600080600060a086880312156115f757600080fd5b600086013567ffffffffffffffff81111561161157600080fd5b61161d888289016114c8565b955050602086013567ffffffffffffffff81111561163a57600080fd5b611646888289016114c8565b945050604086013567ffffffffffffffff81111561166357600080fd5b61166f888289016114c8565b93505060606116808882890161151e565b925050608086013567ffffffffffffffff81111561169d57600080fd5b6116a9888289016114c8565b9150509295509295909350565b6000602082840312156116c857600080fd5b60006116d68482850161151e565b91505092915050565b60006116ea826119f7565b80845260208401935083602082028501611703856119dd565b60005b8481101561173c57838303885261171e8383516117ed565b925061172982611a23565b9150602088019750600181019050611706565b508196508694505050505092915050565b600061175882611a02565b80845260208401935061176a836119ea565b60005b8281101561179c57611780868351611823565b61178982611a30565b915060208601955060018101905061176d565b50849250505092915050565b6117b181611a3d565b82525050565b60006117c282611a18565b8084526117d6816020860160208601611a6c565b6117df81611a9f565b602085010191505092915050565b60006117f882611a0d565b80845261180c816020860160208601611a6c565b61181581611a9f565b602085010191505092915050565b61182c81611a49565b82525050565b600060a082019050818103600083015261184c81886116df565b9050818103602083015261186081876116df565b9050818103604083015261187481866116df565b90508181036060830152611888818561174d565b9050818103608083015261189c81846116df565b90509695505050505050565b60006020820190506118bd60008301846117a8565b92915050565b600060408201905081810360008301526118dd81856117b7565b905081810360208301526118f181846117b7565b90509392505050565b600060a082019050818103600083015261191481886117ed565b9050818103602083015261192881876117ed565b9050818103604083015261193c81866117ed565b905061194b6060830185611823565b818103608083015261195d81846117ed565b90509695505050505050565b600060208201905061197e6000830184611823565b92915050565b6000604051905081810181811067ffffffffffffffff821117156119a757600080fd5b8060405250919050565b600067ffffffffffffffff8211156119c857600080fd5b601f19601f8301169050602081019050919050565b6000602082019050919050565b6000602082019050919050565b600081519050919050565b600081519050919050565b600081519050919050565b600081519050919050565b6000602082019050919050565b6000602082019050919050565b60008115159050919050565b6000819050919050565b6000819050919050565b82818337600083830152505050565b60005b83811015611a8a578082015181840152602081019050611a6f565b83811115611a99576000848401525b50505050565b6000601f19601f830116905091905056fea265627a7a72305820bddf9371229996a0c9a2b54b293c80e556c81b200cfbad47bedd700d77164ce16c6578706572696d656e74616cf50037",
  "source": "pragma solidity ^0.5.0;\r\npragma experimental ABIEncoderV2;\r\n\r\ncontract RBAC {\r\n\r\n  struct Role {\r\n    string description;\r\n    string account;\r\n    string assigningAccount;\r\n    uint256 timestamp;\r\n    string policeStationId;\r\n  }\r\n  \r\n\r\n  Role[] public roles;\r\n  constructor() public {\r\n    addRole(\"ADMIN\", \"0x9D2AD0Ea4F0Cf2895E7669c79d5a928D0731d671\", \"System\", now, '1234');\r\n    addRole(\"RW\", \"0x9D2AD0Ea4F0Cf2895E7669c79d5a928D0731d671\", \"System\", now, '1234');\r\n  }\r\n\r\n\r\n  function addRole(string memory _role, string memory _account, string memory _assigningAccount, uint256 _timestamp, string memory _policeStationId) public returns(uint256) {\r\n    uint256 role = 0;\r\n      role = roles.push(\r\n        Role({\r\n          description: _role,\r\n          account: _account,\r\n          assigningAccount: _assigningAccount,\r\n          timestamp: _timestamp,\r\n          policeStationId : _policeStationId\r\n        })\r\n      ) - 1;\r\n    return role;\r\n  }\r\n  \r\n\r\n  function totalRoles() public view returns(uint256) {\r\n    return roles.length - 1;\r\n  }\r\n\r\n  \r\n  function hasRole(string memory _account, string memory _role) public view returns(bool) {\r\n    bool hasParticularRole = false;\r\n    for(uint256 i=0; i<roles.length; i++){\r\n      if (keccak256(bytes(roles[i].description)) == keccak256(bytes(_role)) && keccak256(bytes(roles[i].account)) == keccak256(bytes(_account))){\r\n        hasParticularRole = true;\r\n        break;\r\n      }\r\n    }\r\n    return hasParticularRole;\r\n  }\r\n\r\n\r\n  function checkIfAdmin(string memory _account) public view returns (bool) {\r\n    bool isAdmin = false;\r\n    for(uint256 i=0; i<roles.length; i++){\r\n      if (keccak256(bytes(roles[i].description)) == keccak256(bytes(\"ADMIN\")) && keccak256(bytes(roles[i].account)) == keccak256(bytes(_account))){\r\n        isAdmin = true;\r\n        break;\r\n      }\r\n    }\r\n    return isAdmin;\r\n  }\r\n\r\n\r\n  function getAllRoles() public view returns (string[] memory, string[] memory, string[] memory, uint256[] memory, string[] memory){\r\n    string[] memory accounts = new string[](roles.length);\r\n    string[] memory accountRoles = new string[](roles.length);\r\n    string[] memory assigningAccounts = new string[](roles.length);\r\n    uint256[] memory timestamps = new uint256[](roles.length);\r\n    string[] memory policeStationIds = new string[](roles.length);\r\n    for (uint256 i = 0; i < roles.length; i++) {\r\n        accounts[i] = roles[i].account;\r\n        accountRoles[i] = roles[i].description;\r\n        assigningAccounts[i] = roles[i].assigningAccount;\r\n        timestamps[i] = roles[i].timestamp;\r\n        policeStationIds[i] = roles[i].policeStationId;\r\n    }\r\n    return (accounts, accountRoles, assigningAccounts, timestamps, policeStationIds);\r\n  }  \r\n\r\n\r\n  function getRoleDetails(string memory _account, string memory _role) public view returns (string memory, string memory) {\r\n    string memory assigningAccount = '';\r\n    string memory policeStationId = '';\r\n    for(uint256 i=0; i<roles.length; i++){\r\n      if (keccak256(bytes(roles[i].description)) == keccak256(bytes(_role)) && keccak256(bytes(roles[i].account)) == keccak256(bytes(_account))){\r\n        assigningAccount = roles[i].assigningAccount;\r\n        policeStationId = roles[i].policeStationId;\r\n        break;\r\n      }\r\n    }\r\n    return (assigningAccount, policeStationId);\r\n  }\r\n  \r\n\r\n  function removeRole(uint index) public returns(bool) {\r\n    bool roleRemoved = false;\r\n    for (uint i = index; i<roles.length-1; i++){\r\n        roles[i] = roles[i+1];\r\n    }\r\n    delete roles[roles.length-1];\r\n    roles.length--;\r\n    roleRemoved = true;\r\n    return roleRemoved;\r\n  }\r\n\r\n}",
  "sourcePath": "C:/Users/Esmond Dsouza/Desktop/Files/Dissertation Projects/CrimeChain/src/contracts/RBAC.sol",
  "compiler": {
    "name": "solc",
    "version": "0.5.0+commit.1d4f565a.Emscripten.clang"
  },
  "schemaVersion": "3.0.2",
  "updatedAt": "2020-08-06T16:23:57.614Z",
  "devdoc": {
    "methods": {}
  },
  "userdoc": {
    "methods": {}
  }
}